:020000040C01ED
:102000004200DEC04200DEC0000000000000000010
:1020100000000000000000000000000000000000C0
:10400000585503309D55010C91E8010C65C5020C13
:1040100065C5020C65C5020C65C5020C65C5020CC0
:104020000000000000000000000000009552010C9C
:104030009B52010C00000000A152010CA752010C80
:10404000AD52010CB352010CB952010CBF52010C1C
:10405000C552010CCB52010CD152010CD752010CAC
:10406000DD52010CE352010CE952010CEF52010C3C
:10407000F552010CFB52010C0153010C0753010CCA
:104080000D53010C1353010C1953010C1F53010C58
:104090002553010C2B53010C3153010C3753010CE8
:1040A0003D53010C4353010C4953010C4F53010C78
:1040B0005553010C5B53010C6153010C6753010C08
:1040C0006D53010C7353010C7953010C7F53010C98
:1040D0008553010C8B53010C9153010C9753010C28
:1040E0009D53010CA353010CA953010CAF53010CB8
:1040F000B553010CBB53010CC153010CC753010C48
:10410000CD53010CD353010CD953010CDF53010CD7
:10411000E553010CEB53010CF153010CF753010C67
:10412000FD53010C0354010C0954010C0F54010CF4
:104130001554010C1B54010C2154010C2754010C83
:104140002D54010C3354010C3954010C3F54010C13
:104150004554010C4B54010C5154010C5754010CA3
:104160005D54010C6354010C6954010C6F54010C33
:104170007554010C7B54010C8154010C8754010CC3
:104180008D54010C9354010C9954010C9F54010C53
:10419000A554010CAB54010CB154010CB754010CE3
:1041A000BD54010CC354010CC954010CCF54010C73
:1041B000D554010CDB54010CE154010CE754010C03
:1041C000ED54010CF354010CF954010CFF54010C93
:1041D0000555010C0B55010C1155010C1755010C1F
:1041E0001D55010C2355010C2955010C2F55010CAF
:1041F0003555010C3B55010C4155010C4755010C3F
:104200004D55010C5355010C5955010C5F55010CCE
:104210006555010C6B55010C7155010C7755010C5E
:104220007D55010C8355010C8955010C8F55010CEE
:104230009555010C10B5054C237833B9044B13B1D7
:10424000044800E000BF0123237010BD3801033093
:1042500000000000E891020C08B5034B1BB10349B4
:10426000034800E000BF08BD000000003C0103302F
:10427000E891020CA3F5803A704700BF174B002B62
:1042800008BF134B9D46FFF7F5FF00218B460F46F5
:104290001348144A121A12F040FB0E4B002B00D0A8
:1042A00098470D4B002B00D09847002000210400B8
:1042B0000D000D48002802D00C4800E000BF12F0AD
:1042C000E3FA2000290000F009FD12F0B7FA00BF60
:1042D00000000800000000000000000058550330F6
:1042E00038010330583503300000000000000000A2
:1042F00080B485B000AFF860B9607A607B68DB435A
:10430000BA689A4201D9002305E0BA687B681A446A
:10431000FB681A60012318461437BD4680BC7047FD
:1043200080B586B000AFF860B9607A60FB68002B9A
:1043300001D1002316E007F114037A68B968184622
:10434000FFF7D6FF034683F00103DBB2002B01D059
:10435000002307E0FB68DA687B699A4201D20023F8
:1043600000E0012318461837BD4680BD80B485B0F3
:1043700000AF03463960FB710023FB600AE0134A7B
:10438000FB681B0113441B78FA799A4208D0FB683A
:104390000133FB600E4B1B68FA689A42EFDB00E0CA
:1043A00000BF0B4B1B68FA689A4202D14FF0FF33F3
:1043B00006E0FB681B01054A1A443B681A600023AB
:1043C00018461437BD4680BC704700BFC879020C40
:1043D000187A020C80B483B000AF786000BF0C374D
:1043E000BD4680BC7047000080B58EB000AFF8605D
:1043F000B9607A603B60002387F833300023FB62AA
:10440000464A07F1140307CA83E807003A68B96807
:10441000F868FFF785FF034683F00103DBB2002B4A
:1044200002D04FF0FF3374E03B687B63FB685B684E
:104430005B68984703463B613B7CC3F34103DBB2B7
:104440009B0038333B4453F8243C87F82B3097F8D3
:104450002B305B421A46BB6813407B627A6ABB68AA
:104460009A423CD0FB685B685B69FA6891687A6A3B
:10447000881897F82B2007F120019847F862FB6A0B
:10448000002B01DAFB6A44E0002387F8333013E0A5
:1044900097F83320BB681A447B6AD21A97F83330F6
:1044A00079680B4438323A4412F8182C1A7097F88D
:1044B0003330013387F8333097F83320BB681A4420
:1044C0007B6AD21A97F82B309A42E1D3BA687B6A9A
:1044D000D21A97F82B30D31A7A6B13447B637B6B19
:1044E000002B10D0FB685B685B69FA689168BA685A
:1044F000114497F83320881897F8332079681144CD
:104500007A6B9847F862FB6A002B01DAFB6A00E0DD
:10451000002318463837BD4680BD00BFBC79020C69
:1045200080B596B000AFF860B9607A603B60002358
:10453000FB640023BB64BB6823F00F037B64BA6891
:104540007B6CD31A3B643A68B968F868FFF7E8FEF9
:10455000034683F00103DBB2002B02D04FF0FF33A0
:104560001EE107F124023B6C796CF868FFF73CFF11
:104570000346002B02D04FF0FF3311E13A683B6C49
:1045800013440F3323F00F03FB63FA6B3B68D21A1B
:104590003B6CD31ABB63FA6B796CF868FFF7C0FE0B
:1045A000034683F00103DBB2002B02D04FF0FF3350
:1045B000F6E0BA683B68D11807F11402BB6BF868E3
:1045C000FFF712FF0346002B02D04FF0FF33E7E066
:1045D0003B6C002B58D03B6C7B650023FB640FE0E9
:1045E0007A68FB6C1344197807F124027B6D13443D
:1045F0000A461A707B6D01337B65FB6C0133FB64EB
:104600007B6D0F2B03D8FA6C3B689A42E8D3FA6CA7
:104610003B689A4221D100233B6510E007F1140268
:104620003B6D1344197807F124027B6D13440A464D
:104630001A707B6D01337B653B6D01333B657B6D90
:104640000F2B03D83A6DBB6B9A42E7D33A6DBB6B25
:104650009A4202D04FF0FF33A2E07B6D102B02D0C4
:104660004FF0FF339CE0FB685B689B69FA689168D8
:104670007A6C881807F12401102298470346002B12
:1046800002D04FF0FF338BE0FA6C3B689A4280F027
:1046900086803A68FB6CD31A23F00F037B637B6B35
:1046A000002B15D0FB685B689B69FA689168BA6853
:1046B0001144FA6C88187A6B796898470346002B86
:1046C00002D04FF0FF336BE0FA6C7B6B1344FB645A
:1046D000FB6CBB64BB6B002B61D000237B650FE0E0
:1046E0007A68FB6C1344197807F124027B6D13443C
:1046F0000A461A707B6D01337B65FB6C0133FB64EA
:104700007B6D0F2B03D8FA6C3B689A42E8D3FA6CA6
:104710003B689A4202D04FF0FF3341E000233B65F3
:1047200010E007F114023B6D1344197807F12402DD
:104730007B6D13440A461A707B6D01337B653B6DBC
:1047400001333B657B6D0F2B03D83A6DBB6B9A42EF
:10475000E7D33A6CBB6C134410337B637B6D102B37
:1047600007D13A6DBB6B9A4203D1FA6B7B6B9A42CD
:1047700002D04FF0FF3313E0FB685B689B69FA6877
:104780009168BA681144BA6C881807F124011022A4
:1047900098470346002B02D04FF0FF3300E0002380
:1047A00018465837BD4680BD80B588B000AFF86068
:1047B000B9607A600023FB610023BB617A68B96845
:1047C000F868FFF7ADFD034683F00103DBB2002B71
:1047D00002D04FF0FF3327E0FB685B689B6A984785
:1047E00078617B691B68002B1DD116E0FB685B6854
:1047F000DB69FA689168BA680A4410469847B8615C
:10480000BB69002B0ED17B699B68FA691344FB617D
:104810007B699B68BA681344BB60FA697B689A42FB
:10482000E4D300E000BFBB6918462037BD4680BD19
:1048300080B584B000AF78607B685B689B6A9847FE
:10484000F860FB681B6918461037BD4680BD80B410
:1048500085B000AF78607B6813F1040F01D906239F
:1048600008E07B680333FB60FB68052B01D9062356
:1048700000E0FB6818461437BD4680BC7047000056
:1048800080B588B000AF7860194A07F1140392E848
:10489000030083E803000FF03FFA0346FB61FB6966
:1048A000002B07D0124A07F10C0392E8030083E8BB
:1048B000030006E00F4A07F10C0392E8030083E8C7
:1048C000030007F1140307F10C0292E8030083E8E8
:1048D000030001F02FF97B681A4607F1140393E8EF
:1048E000030082E8030078682037BD4680BD00BF22
:1048F000140003300C00033080B592B000AFF860B4
:10490000B9607A603A4A07F12C0392E8030083E821
:1049100003007B68002B08D101F00CF9FB68344AD6
:1049200092E8030083E803005DE0B868FFF78FFFBB
:1049300078647B6C052B08D901F0FCF8FB682C4AE5
:1049400092E8030083E803004DE007F128031A46CC
:104950000421786C0FF03EFA0346FB63FB6B002BDF
:1049600007D0234A07F1200392E8030083E80300FD
:1049700006E0204A07F1200392E8030083E80300E1
:1049800007F12C0307F1200292E8030083E80300FB
:10499000BB6A3B643B6C7B63174B1A683B6C5340B0
:1049A000BB6307F1100307F1340292E8030083E8C8
:1049B000030007F1180307F1100292E8030083E8EF
:1049C00003007B681A4607F1180393E8030082E8A6
:1049D000030001F0AFF8FB681A4607F12C0393E8D7
:1049E000030082E80300F8684837BD4680BD00BF79
:1049F000140003300C0003300800033080B584B08D
:104A000000AF786039607868FFF721FFF860FB68D5
:104A1000052B02D94FF0FF330BE03968F8680FF02F
:104A2000FFF9B860BB68002B02D04FF0FF3300E005
:104A3000002318461037BD4680BD80B586B000AF54
:104A4000786039600023FB757B68002B02D03B68DF
:104A5000002B02D14FF0FF3343E00023BB7520E071
:104A6000BB7D002B06D0BB7D012B01D1022302E0D0
:104A7000FF2300E0012307F1080211461846FFF763
:104A800075FC0346002B02D04FF0FF3329E0BB68D2
:104A90003A689A4202D1BB7DFB7505E0BB7D0133CC
:104AA000BB75BB7D012BDBD9BB7D022B02D14FF047
:104AB000FF3316E07A6807F10C03143292E8030022
:104AC00083E80300FB7D9BB29B019BB203F47C63F4
:104AD000BB8207F10C03B98A0822022000F028FEED
:104AE000034618461837BD4680BD000080B584B027
:104AF00002AF3B461A46082101200FF023FBD7E9FD
:104B000000230C480C498B4208BF824207D10B4B53
:104B100000930B4B0B4A0C490C4812F0E7FA3B464A
:104B200008220021184611F0F8FE00BF0837BD46E4
:104B300080BD00BFA9B454B26D6F90A4EC7A020C92
:104B4000807A020CA07A020CD07A020CD87A020C7D
:104B500080B582B000AF3B461A46042106200FF014
:104B6000F1FA78607B68002B01D07B6808E03B6835
:104B7000002B02D03B68012B01D1012300E0002370
:104B800018460837BD4680BD80B582B000AF1A4ACE
:104B900020210B200FF0AAFB78607B68002B06D049
:104BA0007B684CF25A32934201D07B6820E0134A72
:104BB00020210C200FF09AFB78607B68002B06D038
:104BC0007B684CF25A32934201D07B6810E00C4A69
:104BD00020210D200FF08AFB78607B68002B06D027
:104BE0007B684CF25A32934201D07B6800E07B68CC
:104BF00018460837BD4680BD207A020C407A020C68
:104C0000607A020C80B582B000AF3B461A460421A0
:104C100006200FF097FA78607B68002B01D07B6844
:104C200018E00E4812F062FA3B68002B11D1002206
:104C30000B4B9A4205D00B4812F058FA4AF2C53392
:104C400008E0FFF7A1FF78607B68002B01D07B684C
:104C500000E0002318460837BD4680BDF47A020CF8
:104C6000EDFEDEC0187B020C80B586B000AF786028
:104C70007B681B7907F10C021146184600F080F999
:104C800038613B69002B05D0114B124A3D21124877
:104C900011F0AEFD7B681B681B6903F02003002B3D
:104CA00008D07B681B685B687A68126812891344B5
:104CB0007B6108E07B689A68FB6813447A68126835
:104CC000128913447B610FF097F9786917F0C0F9E6
:104CD000547B020C247D020C5C7B020C80B59CB0E2
:104CE00000AF914A07F1580392E8030083E80300FC
:104CF0004FF400518D4807F01BFF0FF03DF908F00D
:104D000029FE0346002B04D0894812F0EFF900F089
:104D100055FF884812F0EAF90FF0E1F9F866FB6EEA
:104D2000002B04D0844812F0E1F900F047FFFFF7B0
:104D30000FFF0346002B0BD0FFF764FFF866FB6EF6
:104D4000002B07D07D4812F0D1F900F037FF01E0C9
:104D5000FFF7CCFE07F11003184600F04DFE724A33
:104D600007F1580392E8030083E803000123002BB6
:104D70000AD03B461846FFF783FD07F158033A4631
:104D800092E8030083E8030007F1100393E80300AF
:104D900000F08AFE07F1280307F1580292E80300A9
:104DA00083E80300664A07F1300392E8030083E8D2
:104DB000030007F1200307F1280292E8030083E8CB
:104DC00003003A6A796A5F4B1B684B409A4201D0F4
:104DD00000F0F4FE00BF07F1180307F1300292E87B
:104DE000030083E80300BA69F969564B1B684B401E
:104DF0009A4201D000F0E2FE00BFBA6A3B6B9A42D1
:104E000008D00123002B05D0FA6A7B6B9A4201D0AF
:104E1000012300E00023002B04D04B4812F066F978
:104E200000F0CCFE07F10803184600F0E5FD3E4A0D
:104E300007F1580392E8030083E803000123002BE5
:104E40000DD03B4607F160021146184602F002FE03
:104E500007F158033A4692E8030083E8030007F19C
:104E6000080393E8030000F01FFE07F1480307F171
:104E7000580292E8030083E80300314A07F1500327
:104E800092E8030083E8030007F1400307F14802BA
:104E900092E8030083E803003A6C796C294B1B68A5
:104EA0004B409A4201D000F089FE00BF07F1380361
:104EB00007F1500292E8030083E80300BA6BF96B34
:104EC000204B1B684B409A4201D000F077FE00BF98
:104ED000BA6C3B6D9A4208D00123002B05D0FA6CC6
:104EE0007B6D9A4201D0012300E00023002B04D007
:104EF000164812F0FBF800F061FEBB6E194614482C
:104F000012F0F4F8134812F0F1F807F160031846B4
:104F1000FFF7AAFE104812F0E9F800F04FFE002358
:104F200018467037BD4680BD14000330540103306D
:104F3000C47B020CE47B020C007C020C2C7C020C77
:104F40000C00033008000330487C020C807C020C0B
:104F5000A87C020CDC7C020C047D020C80B584B0C1
:104F600000AF0346B9607A60FB73FB7B7A68B9686F
:104F700018460FF088F8034618461037BD4680BD26
:104F800080B582B000AF03463960FB71FB79642BBA
:104F900008D0FB7964221946074812F0A7F84FF0B1
:104FA000FF3304E03B684FF040621A60002318466C
:104FB0000837BD4680BD00BF307D020C80B483B091
:104FC00000AF786039603B68022B21D03B68022B30
:104FD00020DC3B68002B03D03B68012B0CD019E090
:104FE0007B68002B06D07B68012B01D1022313E0E4
:104FF000FF2311E001230FE07B68002B06D07B68C4
:10500000012B01D1042307E0FF2305E0032303E084
:10501000052301E04FF0FF3318460C37BD4680BC36
:10502000704780B582B000AF78607B685B689B6A30
:10503000984703461B7D18460837BD4680BD0000D3
:1050400080B588B000AFF860B9607A60BB681B6853
:105050007B614FF0FF33BB61FB68DBB207F11002ED
:1050600011461846FFF782F90346002B4CD1BB6866
:105070001B68002B42D03B69DB68FB61BB680022E8
:105080001A6026E0FB69B3F5005F08D23B69DA6875
:105090004FF40053F9681F4812F028F82FE0BB685E
:1050A0001A68BB681B68DB0079680B4452031A60FE
:1050B000BB681B68DB007A6813444FF400525A60E7
:1050C000BB681B685A1CBB681A60FB69A3F50053D8
:1050D000FB61FB69002B04D0BB681B687A699A42AC
:1050E000D0D8BB681B687A699A4204D2F9680A482A
:1050F00011F0FCFF03E00023BB6100E000BF3B694F
:105100001846FFF767F900E000BFBB691846203773
:10511000BD4680BD7C7D020CB87D020C80B485B09C
:1051200000AF7860094B1B68FB60094AFB68013BD4
:105130005360074B00229A60054B05221A6000233A
:1051400018461437BD4680BC704700BF340003309A
:1051500010E000E080B483B000AF1D4B9B687B6023
:105160001C4B1B687A689A4209D81A4B1A687B68EC
:10517000D21A194B1B681344174A13600BE0144BE7
:105180005A68144B1B681A447B68D21A124B1B686E
:105190001344114A1360114B1B68114AA2FB0323ED
:1051A0009A090D4B1B689A4207D20B4B00221A60DA
:1051B0000C4B1B6801330B4A1360064A7B68136073
:1051C000084B1B6818460C37BD4680BC704700BFB3
:1051D00010E000E0582103305C210330340003303C
:1051E000D34D62106021033080B584B000AF786089
:1051F000254BD3F89430244A43F00403C2F894308A
:10520000214BD3F8943003F00403FB60FB680AF0F1
:1052100047FB1D4BD3F8F0301B4A43F01803C2F88C
:10522000F0301A480AF04AFB0346002B01D017F071
:1052300099F917480BF0A2FB0346002B01D017F099
:1052400091F9114BD3F8F0300F4A43F40043C2F800
:10525000F0300D4BD3F8A8300B4A43F40013C2F8DA
:10526000A830094BD3F8A83003F40013BB60BB6827
:105270000022042104200DF06AFF04200DF081FFBC
:1052800000BF1037BD4680BD000C0256E47D020C05
:10529000447E020C80B400AFFEE780B400AFFEE7AE
:1052A00080B400AFFEE780B400AFFEE780B400AF8B
:1052B000FEE780B400AFFEE780B400AFFEE780B445
:1052C00000AFFEE780B400AFFEE780B400AFFEE7BA
:1052D00080B400AFFEE780B400AFFEE780B400AF5B
:1052E000FEE780B400AFFEE780B400AFFEE780B415
:1052F00000AFFEE780B400AFFEE780B400AFFEE78A
:1053000080B400AFFEE780B400AFFEE780B400AF2A
:10531000FEE780B400AFFEE780B400AFFEE780B4E4
:1053200000AFFEE780B400AFFEE780B400AFFEE759
:1053300080B400AFFEE780B400AFFEE780B400AFFA
:10534000FEE780B400AFFEE780B400AFFEE780B4B4
:1053500000AFFEE780B400AFFEE780B400AFFEE729
:1053600080B400AFFEE780B400AFFEE780B400AFCA
:10537000FEE780B400AFFEE780B400AFFEE780B484
:1053800000AFFEE780B400AFFEE780B400AFFEE7F9
:1053900080B400AFFEE780B400AFFEE780B400AF9A
:1053A000FEE780B400AFFEE780B400AFFEE780B454
:1053B00000AFFEE780B400AFFEE780B400AFFEE7C9
:1053C00080B400AFFEE780B400AFFEE780B400AF6A
:1053D000FEE780B400AFFEE780B400AFFEE780B424
:1053E00000AFFEE780B400AFFEE780B400AFFEE799
:1053F00080B400AFFEE780B400AFFEE780B400AF3A
:10540000FEE780B400AFFEE780B400AFFEE780B4F3
:1054100000AFFEE780B400AFFEE780B400AFFEE768
:1054200080B400AFFEE780B400AFFEE780B400AF09
:10543000FEE780B400AFFEE780B400AFFEE780B4C3
:1054400000AFFEE780B400AFFEE780B400AFFEE738
:1054500080B400AFFEE780B400AFFEE780B400AFD9
:10546000FEE780B400AFFEE780B400AFFEE780B493
:1054700000AFFEE780B400AFFEE780B400AFFEE708
:1054800080B400AFFEE780B400AFFEE780B400AFA9
:10549000FEE780B400AFFEE780B400AFFEE780B463
:1054A00000AFFEE780B400AFFEE780B400AFFEE7D8
:1054B00080B400AFFEE780B400AFFEE780B400AF79
:1054C000FEE780B400AFFEE780B400AFFEE780B433
:1054D00000AFFEE780B400AFFEE780B400AFFEE7A8
:1054E00080B400AFFEE780B400AFFEE780B400AF49
:1054F000FEE780B400AFFEE780B400AFFEE780B403
:1055000000AFFEE780B400AFFEE780B400AFFEE777
:1055100080B400AFFEE780B400AFFEE780B400AF18
:10552000FEE780B400AFFEE780B400AFFEE780B4D2
:1055300000AFFEE780B400AFFEE780B400AFFEE747
:1055400080B400AFFEE780B400AFFEE780B400AFE8
:10555000FEE780B400AFFEE780B400AFFEE780B4A2
:1055600000AFFEE780B400AFFEE780B400AFFEE717
:1055700080B400AFFEE780B400AFFEE780B400AFB8
:10558000FEE780B400AFFEE780B400AFFEE780B472
:1055900000AFFEE780B400AFFEE7000080B588B042
:1055A00000AF464BFB61FB6983F30A8800BF08F03C
:1055B00051F9434BD3F89430414A43F00403C2F805
:1055C00094303F4BD3F8943003F00403BB60BB68C6
:1055D0000AF066F93A4BD3F8F030394A43F4004305
:1055E000C2F8F030364BD3F8A830354A43F40013F4
:1055F000C2F8A830324BD3F8A83003F400137B6014
:105600007B68304B1B6B002B17D02D4BD3F8F03041
:105610002B4A43F48033C2F8F030294BD3F8F030F2
:10562000274A23F48033C2F8F03000BF254B1B6BB0
:10563000002BFBD1244B01221A60244BBB611AE0E2
:1056400000237B610EE0BB691A687B699B001A44EA
:10565000BB6959687B699B000B4412681A607B69BF
:1056600001337B61BB699B689B087A699A42EAD3E4
:10567000BB690C33BB61BB69154A9342E0D3154B40
:105680003B6115E00023FB6009E03B691A68FB6899
:105690009B00134400221A60FB680133FB603B69E6
:1056A0005B689B08FA689A42EFD33B6908333B6119
:1056B0003B69094A9342E5D3FEF7E0FD58350330D4
:1056C000000C0256007C005664210330F491020C59
:1056D0000C92020C0C92020C1C92020C80B400AFD3
:1056E00000231846BD4680BC704780B400AF00233D
:1056F0001846BD4680BC704780B485B000AF786066
:105700000B467B8013463B807A883B881344FB60C2
:10571000FB68B3F5803F01D3002304E0FB689AB235
:105720007B681A80012318461437BD4680BC704739
:1057300080B58AB000AFBA607B600346FB730B464E
:10574000BB810023BB617B68002B01D1032387E071
:10575000454B3B62454B1B7883F00103DBB2002BCA
:105760000FD04FF4806200213F4811F0D6F83B6A19
:1057700042F216021A803B6A04225A803B4B0122F5
:105780001A703B6A5B8803F1405303F57F33FB617A
:10579000374B7B621BE0796A07F118030422184635
:1057A00011F0AEF83B8B1B0B9AB2FB7B9BB29A427B
:1057B00007D13B8BC3F30B02BB899A4201D1022371
:1057C0004EE07B8B1A467B6A134404337B627A6A11
:1057D000FB699A42DFD3FB7B1B031AB2B7F90C308B
:1057E000C3F30B031BB213431BB29BB23B83BB68D7
:1057F0009BB27B833B6A5988BB689BB204339AB2E5
:1058000007F116031846FFF777FF034683F00103FD
:10581000DBB2002B01D0032322E0FB8AB3F5806FBB
:1058200001D901231CE0FB697B627B6A07F1180147
:105830000422184611F064F87B6A04337B627B6AA9
:10584000BA687968184611F05BF83B6A5A88BB68F9
:105850009BB213449BB204339AB23B6A5A80002332
:1058600018462837BD4680BD00FC03306821033050
:1058700004FC033080B5B4B002AF0346B9607A606F
:10588000FB730023C7F8C430002387F8C33000231C
:1058900087F8C23007F1A000002300934FF6FF7392
:1058A0007A68B96803F0E6F9C7F8BC00D7F8BC30ED
:1058B000002B02D04FF0FF3399E007F1980307F176
:1058C0009A0207F19C0107F1A00003F04EFAC7F815
:1058D000BC00D7F8BC30002B02DA4FF0FF3386E073
:1058E000D7F8BC30002B45DCB7F89830602B20D1BE
:1058F000B7F89A30642B02D94FF0FF3377E0D7F82E
:105900009C10B7F89A3007F114027868FEF76CFD26
:10591000C7F8BC00D7F8BC30002B02D04FF0FF33E3
:1059200065E0B7F89A30C7F8C430012387F8C33070
:10593000C3E7B7F89830102BBFD1B7F89A30202BB7
:1059400002D94FF0FF3352E0D7F89C10B7F89A30E5
:1059500007F178027868FEF747FDC7F8BC00D7F872
:10596000BC30002B02D04FF0FF3340E0012387F81A
:10597000C23000E000BF97F8C33083F00103DBB210
:10598000002B06D197F8C23083F00103DBB2002B65
:1059900002D04FF0FF332AE0D7F8C430203BC7F8DD
:1059A0009C30D7F89C3007F11402134407F17801BA
:1059B0002022184610F0A4FFFB7B9B011BB243F092
:1059C0003F031BB2A7F8BA3007F11403B7F8BA10B7
:1059D000D7F8C4200120FFF7ABFEC7F8BC00D7F80A
:1059E000BC30002B02D0D7F8BC3000E000231846B2
:1059F000C837BD4680BD000080B590B000AF78606C
:105A0000274A07F12C0392E8030083E8030007F11B
:105A1000240307F12C0292E8030083E8030007F156
:105A20001C0307F1240292E8030083E80300FA69EB
:105A3000396A1C4B1B684B409A4201D000F0BEF8FB
:105A400000BF7B6A0133FB63FB6B7B63154B1A68FA
:105A5000FB6B5340BB6307F10C0307F1340292E880
:105A6000030083E8030007F1140307F10C0292E836
:105A7000030083E803000A4B1A4607F1140393E876
:105A8000030082E803007B681A4607F12C0393E8C1
:105A9000030082E8030078684037BD4680BD00BF40
:105AA0001C0003300800033090B58BB000AF3B46BC
:105AB00083E8030007F120033A4692E8030083E8F5
:105AC000030007F1180307F1200292E8030083E8BE
:105AD0000300BA69F969154B1B684B409A4201D023
:105AE00000F06CF800BF3C6A114A07F1100392E81D
:105AF000030083E8030007F1080307F1100292E8AE
:105B0000030083E80300BA68F968084B1B684B4040
:105B10009A4201D000F052F800BF3B699C4201D08C
:105B200000F04CF800BF2C37BD4690BD0800033094
:105B30001C00033080B58CB000AF1E4A07F11C0377
:105B400092E8030083E8030007F1140307F11C0245
:105B500092E8030083E803007A69B969164B1B6871
:105B60004B409A4201D000F029F800BFFB69013B8D
:105B7000FB62FB6A7B62104B1A68FB6A5340BB6294
:105B80003B1D07F1240292E8030083E8030007F1BC
:105B90000C033A1D92E8030083E80300054B1A4604
:105BA00007F10C0393E8030082E8030000BF3037DD
:105BB000BD4680BD1C0003300800033080B400AF38
:105BC000FFF7FCBFFFF7FABFFFF7F8BFFFF7F6BF1D
:105BD000FFF7F4BFFFF7F2BFFFF7F0BFFFF7EEBF2D
:105BE000FFF7ECBF00BFBD4680BC704780B483B0F8
:105BF00000AF78607B685B7818460C37BD4680BC88
:105C0000704780B483B000AF78607B689B681846AB
:105C10000C37BD4680BC704780B483B000AF78605D
:105C20007B68DB6818460C37BD4680BC704780B483
:105C300085B000AFF860B9607A607B68DB43BA6812
:105C40009A4201D9002305E0BA687B681A44FB68D0
:105C50001A60012318461437BD4680BC704780B4D3
:105C600083B000AF786039607B6893F8C430194620
:105C70003B682C2203FB02F2582301FB03F313447D
:105C80007A68134418460C37BD4680BC704780B50F
:105C900082B000AF786039607B6893F8C4301846F2
:105CA0007A683B682C2103FB01F1582300FB03F3C6
:105CB0000B44134420331B681846FFF7A2FF03462A
:105CC00018460837BD4680BD80B586B000AFF86085
:105CD0000B467A60FB7200233B6123E001237B616A
:105CE0007B69012B0BD13B691946F868FFF7B7FFB9
:105CF00002467B683969F86802F016FA78617B69B8
:105D0000002B0CD03B69002B07DDFB7A83F00103ED
:105D1000DBB2002B01D0002308E07B6906E03B6981
:105D200001333B613B69012BD8DD0023184618374E
:105D3000BD4680BDB0B584B000AF786039607B6887
:105D400093F8C44039687868FFF789FF7B6893F857
:105D5000C4301D467A683B682C2103FB01F15823AF
:105D600005FB03F30B44134420331B681A4601461A
:105D70002046FFF77FFDF860FB68002B04D0154834
:105D800011F0B4F9FB6820E039687868FFF767FF25
:105D90007B6893F8C4301C467A683B682C2103FB6F
:105DA00001F1582304FB03F30B44134420331B6815
:105DB0001946FEF742FEF860FB68002B04D0064847
:105DC00011F094F9FB6800E0002318461037BD4637
:105DD000B0BD00BF047F020C347F020C80B584B0DC
:105DE00000AF786039607B68002283F8C4207B684C
:105DF000002283F8C42014E07B6893F8C4301A466C
:105E00007B68134493F8C53083F00103DBB2002BA9
:105E10000DD17B6893F8C4300133DAB27B6883F824
:105E2000C4207B6893F8C430012BE5D900E000BFA3
:105E30000023FB607B6893F8C43018467A68FB68DF
:105E40002C2103FB01F1582300FB03F30B44134403
:105E500020331B681846FFF7C9FE03461A463B6805
:105E60001A71F9687868FFF712FF02463B689A607A
:105E7000F9687868FFF7F3FE02463B681A6000BFD6
:105E80001037BD4680BD80B584B000AF78607B68B8
:105E9000002283F8C42037E07B6893F8C4301A46A8
:105EA0007B68134493F8C530002B24D17B68D3F86A
:105EB000B0301846FEF78EFA0023FB6017E07B68CF
:105EC00093F8C4301846FB68C3F101037A682C21AB
:105ED00003FB01F1582300FB03F30B44134420336D
:105EE0001B681846FEF776FAFB680133FB60FB6817
:105EF000012BE4D900E000BF7B6893F8C430013384
:105F0000DAB27B6883F8C4207B6893F8C430012B35
:105F1000C2D900BF00BF1037BD4680BD90B58BB061
:105F200000AFF860B9607A60FB6893F8C430B96874
:105F30001846FFF743F838623B6ADBB207F11402F8
:105F400011461846FEF712FA78627B6A002B02D0DF
:105F500001237B6259E0BB681946F868FFF77FFEB2
:105F600003461B891C46BB681946F868FFF777FE95
:105F70000346DB682344FB61786907F110020423C0
:105F8000F969FEF731FA0346002B02D001237B6248
:105F90003BE0BB681946F868FFF761FE03465B8982
:105FA000BB613B8A46F60812934217D17B8A1A4698
:105FB000BB69934202D003237B6226E078697B8A27
:105FC0001A46FB69D11807F110020423FEF70CFAF8
:105FD0000346002B08D001237B6216E0BB69002B2F
:105FE00002D003237B6210E03B8A46F607129342FD
:105FF00002D003237B6208E0FA69BB6913447A8A02
:106000001A447B681A6000237B627B691846FEF79E
:10601000E1F97B6A18462C37BD4690BD80B584B047
:1060200000AF78607B6893F8C43019467A685823CB
:1060300001FB03F3134420331B681846FEF7F8FBFB
:10604000F8607B68D3F8B0301846FEF7F1FBB86013
:10605000BA68FB689A4201D9BB68FB60FB681846C6
:106060001037BD4680BD80B586B000AF786039601E
:106070005023BB605023BB607B6893F8C430002B77
:1060800008D07B6893F8C430012B01D1022302E0D1
:10609000FF2300E001233A68934217D17B6893F80D
:1060A000C43019467A68582301FB03F313442433A0
:1060B0001B687B617B6893F8C4301A46582302FB47
:1060C00003F328337A6813443B6136E07B6893F826
:1060D000C430002B08D07B6893F8C430012B01D169
:1060E000042302E0FF2300E003233A68934217D120
:1060F0007B6893F8C43019467A68582301FB03F390
:10610000134450331B687B617B6893F8C4301A4694
:10611000582302FB03F354337A6813443B610CE0C9
:106120003B68052B07D17B68D3F8B4307B617B6873
:10613000B8333B6101E0012310E007F108037A69FD
:1061400019463868FEF77CFFF860FB68002B01D029
:10615000FB6803E0BA683B691A60002318461837E9
:10616000BD4680BD80B584B000AF78607B6893F891
:10617000C430FB73FB7B002B06D0FB7B012B01D1D2
:10618000022302E0FF2300E0012319467868FFF7AD
:106190006AFFB860BB68002B01D0012326E0FB7BBF
:1061A000002B06D0FB7B012B01D1042302E0FF234F
:1061B00000E0032319467868FFF755FFB860BB6815
:1061C000002B01D0092311E005217868FFF74BFF70
:1061D000B860BB68002B01D0012307E07868FFF7A7
:1061E0001DFF02467B68C3F8C02000231846103705
:1061F000BD4680BD80B483B000AF78607B6800226C
:106200009A717B6800229A607B680022DA607B6862
:1062100001225A717B6801221A607B6801221A717F
:106220007B680122DA7100BF0C37BD4680BC704725
:1062300080B483B000AF78607B685B79012B09D1B3
:106240007B681B68012B05D17B681B79012B01D171
:10625000012300E0002303F00103DBB218460C37F2
:10626000BD4680BC704790B58DB000AF7860396096
:106270000023BB623B689B79002B02D00523FB62A5
:106280000FE07B6893F8C430002B08D07B6893F84C
:10629000C430012B01D1022302E0FF2300E00123DF
:1062A000FB62FB6ADBB207F1180211461846FEF7E3
:1062B0005DF8B862BB6A002B01D0012335E0BB69F1
:1062C000184602F0AFFE04467B68D3F8C03019468A
:1062D000386801F0E5FF034623447B62BB6918463A
:1062E000FEF7A6FA3862BB691846FEF79AFE034627
:1062F000FB77F97F07F108031022184610F00DFB19
:106300003B681B793B72B86907F108023B6A796AFE
:10631000FEF706F9B862BB6A002B01D00123BB620D
:10632000BB691846FEF756F8BB6A18463437BD46B7
:1063300090BD000080B592B006AF78613961FA6017
:10634000BB60254A07F1240392E8030083E80300B9
:106350003B6993F8C43087F82F3007F11C031846C7
:10636000FFF74AFB1C4A07F1240392E8030083E885
:1063700003000123002B1AD097F82F203846002362
:10638000059300230493002303934FF48073029337
:10639000124B0193BB680093FB68002103F09CFC47
:1063A00007F124033A4692E8030083E8030007F16B
:1063B0001C0393E80300FFF777FBFFF7BBFB7B6948
:1063C0001A4607F1240393E8030082E80300786982
:1063D0003037BD4680BD00BF140003303422033087
:1063E00080B584B000AF786039607B681B68124A62
:1063F000934201D000231BE07B68D9687B681B892E
:106400001A4607F10C031846FFF711FC034683F008
:106410000103DBB2002B01D0002309E03868FFF74D
:10642000FBFB0246FB689A4201D8002300E00123EF
:1064300018461037BD4680BD3DB8F39680B487B08E
:1064400000AF0346B9607A60FB73BB683B61002311
:10645000FB750BE0FB7D3A6913441B78FA7B9A428B
:1064600001D0002307E0FB7D0133FB75FB7D7A68DB
:106470009A42EFD8012318461C37BD4680BC7047AE
:1064800080B588B000AF786039607B6893F8C4301D
:1064900039681846FEF792FDF861FB69DBB207F137
:1064A0000C0211461846FDF761FFB861BB69002B6D
:1064B00002D04FF0FF331FE0FB681846FEF7B1FD36
:1064C0000346FB75FB681846FDF784FF3B681946D9
:1064D0007868FFF7C4FB38613969FB7D04221846F0
:1064E000FFF7ACFF034683F00103DBB2002B02D0C1
:1064F0004FF0FF3300E0002318462037BD4680BD33
:1065000080B483B000AF786039607B681A783B68EC
:106510001B789A4201D901232BE07B681A783B68EB
:106520001B789A4202D24FF0FF3322E07B685A7800
:106530003B685B789A4201D901231AE07B685A785C
:106540003B685B789A4202D24FF0FF3311E07B68E0
:106550005A883B685B889A4201D9012309E07B682D
:106560005A883B685B889A4202D24FF0FF3300E0C2
:10657000002318460C37BD4680BC704790B5BDB0AF
:1065800002AF78613961FA60BB60C24A07F19803D3
:1065900092E8030083E803003B6993F8C430F9688C
:1065A0001846FEF70BFDC7F8E400D7F8E430DBB27D
:1065B00007F1A00211461846FDF7D8FEC7F8E00023
:1065C000D7F8E030002B0AD0FFF7B4FA7B691A46FF
:1065D00007F1980393E8030082E803009EE1FB685B
:1065E00019463869FFF73BFBC7F8DC00F9683869E2
:1065F000FFF746FF0346002B06D0D7F8DC301B69B7
:1066000003F01003002B2FD0FB68002B05D0D7F828
:10661000A0301946386901F00BFB0123C7F8D830C8
:10662000D7F8D830C7F8AC309B4B1A68D7F8D830B9
:106630005340C7F8B03007F1200307F1AC0292E8ED
:10664000030083E8030007F1280307F1200292E822
:10665000030083E8030007F1980307F1280292E89A
:10666000030083E803004AE10123C7F8D030D7F8DC
:10667000D030C7F8BC30884B1A68D7F8D0305340B8
:10668000C7F8C03007F1580307F1BC0292E80300D5
:1066900083E8030007F1600307F1580292E8030062
:1066A00083E8030007F1980307F1600292E8030012
:1066B00083E803000123C7F8D430D7F8D430C7F8F3
:1066C000B430754B1A68D7F8D4305340C7F8B83097
:1066D00007F1500307F1B40292E8030083E80300D6
:1066E00007F1A40307F1500292E8030083E80300D6
:1066F00007F1400307F1980292E8030083E80300E2
:1067000007F1480307F1A40292E8030083E80300BD
:1067100007F1380307F1400292E8030083E8030021
:10672000BA6BF96B5C4B1B684B409A4201D0FFF788
:1067300045FA00BF07F1300307F1480292E8030071
:1067400083E803003A6B796B534B1B684B409A42CA
:1067500001D0FFF733FA00BF3A6CBB6C9A4208D104
:106760000123002B05D07A6CFB6C9A4201D10123E6
:1067700000E00023002B26D007F118031846FFF78E
:106780003BF9444A07F1980392E8030083E80300C9
:106790000123002B11D0D7F8A0203846BB68009306
:1067A0001346D7F8DC203969FFF7C4FD07F19803D9
:1067B0003A4692E8030083E8030007F1180393E8E0
:1067C0000300FFF771F9D7F8A0301946D7F8DC00BD
:1067D000FFF706FE034683F00103DBB2002B44D132
:1067E00007F1780307F1980292E8030083E80300B9
:1067F0002A4A07F1800392E8030083E8030007F1C7
:10680000700307F1780292E8030083E803003A6F0F
:10681000796F214B1B684B409A4201D0FFF7CEF9AC
:1068200000BF07F1680307F1800292E8030083E8E4
:106830000300BA6EF96E184B1B684B409A4201D0A8
:10684000FFF7BCF900BFBA6FD7F880309A4209D081
:106850000123002B06D0FA6FD7F884309A4201D07A
:10686000012300E00023002B48D0FB68002B0CD054
:10687000D7F8A040D7F8A0301846FFF7CDF9034667
:106880001A4600212046FDF78FFFFB68002B09D137
:10689000034B08E014000330080003300C00033001
:1068A000687F020C1F4B19461F4810F01FFC012384
:1068B000C7F8CC30D7F8CC30C7F8C4301B4B1A68B7
:1068C000D7F8CC305340C7F8C83007F1880307F138
:1068D000C40292E8030083E8030007F1900307F184
:1068E000880292E8030083E8030007F1980307F1A8
:1068F000900292E8030083E8030000E000BFD7F8AD
:10690000A0301846FDF766FDFFF714F97B691A46BB
:1069100007F1980393E8030082E803007869EC37F5
:10692000BD4690BD707F020C7C7F020C08000330D6
:1069300080B588B000AF0346B9607A60FB7300236E
:10694000BB61FB7BB9681846FEF738FB0346DBB238
:1069500007F1180211461846FDF708FDF861FB69BA
:10696000002B02D00123FB6115E0BB6907F1140283
:106970001946786803F064F9F861FB69002B09D1C6
:10698000FB7B7A6911461846FEF738F8F861FB6917
:10699000002B00E000BFBB691846FDF71BFDFB693B
:1069A00018462037BD4680BD80B5A0B000AFF86066
:1069B000B960724A07F1600392E8030083E80300BC
:1069C000FB6893F8C430184602F0FAFEF867FB6FD4
:1069D000022B06D0FB6F042B03D0FB6F032B40F080
:1069E000C78007F110031846FFF706F8634A07F15E
:1069F000600392E8030083E803000123002B0CD01E
:106A00003846BB680122F968FFF7B8FD07F160035B
:106A10003A4692E8030083E8030007F1100393E885
:106A20000300FFF741F807F1280307F1600292E83D
:106A3000030083E80300524A07F1300392E80300A1
:106A400083E8030007F1200307F1280292E803001E
:106A500083E803003A6A796A4A4B1B684B409A42C2
:106A600001D0FFF7ABF800BF07F1180307F13002C0
:106A700092E8030083E80300BA69F969414B1B6897
:106A80004B409A4201D0FFF799F800BFBA6A3B6BBE
:106A90009A4208D00123002B05D0FA6A7B6B9A42F8
:106AA00001D0012300E00023002B61D00123BB674C
:106AB000BB6F3B67334B1A68BB6F53407B6707F173
:106AC000580307F1700292E8030083E8030007F11E
:106AD000680307F1580292E8030083E8030007F116
:106AE000480307F1600292E8030083E8030007F11E
:106AF000500307F1680292E8030083E8030007F1FE
:106B0000400307F1480292E8030083E803003A6C6F
:106B1000796C1C4B1B684B409A4201D0FFF74EF832
:106B200000BF07F1380307F1500292E8030083E841
:106B30000300BA6BF96B134B1B684B409A4201D0B0
:106B4000FFF73CF800BFBA6C3B6D9A4208D10123B5
:106B5000002B05D0FA6C7B6D9A4201D1012300E035
:106B60000023002B02D00123FB6701E00523FB6714
:106B7000FB6F18468037BD4680BD00BF1400033050
:106B80000C0003300800033080B584B000AFF8601B
:106B9000B9607A607A68B968F868FDF705FE03465F
:106BA00018461037BD4680BD80B588B000AFF8608C
:106BB000B9607A603B600023FB612DE0FA6AFB69F3
:106BC000D31AB3F5806F03D94FF48063BB6103E040
:106BD000FA6AFB69D31ABB613A68FB69D118BB69D1
:106BE000124AB868FDF700FC78617B69002B01D080
:106BF000012316E0BA6AFB69D118BB690B4A7868B1
:106C0000FDF78EFC78617B69002B01D0012308E041
:106C1000BB69FA691344FB61FA69FB6A9A42CDD3F6
:106C2000002318462037BD4680BD00BF3423033003
:106C300080B588B000AF786039600023FB60FB68E6
:106C40003B617B6893F8C430FB773868FFF7F0FA54
:106C50000346002B41D000217868FFF700F87861E7
:106C60007B691B68324A934211D107F10C031A4623
:106C700000217868FFF752F9B861BB69002B06D094
:106C80002C4B2D4A4FF49C612C480FF0B1FD012193
:106C90007868FEF7E4FF78617B691B68244A9342B9
:106CA00011D107F110031A4601217868FFF736F970
:106CB000B861BB69002B06D01E4B1F4A40F2F7415A
:106CC0001E480FF095FD3A69FB689A4201D93B696D
:106CD000FB60FA683B689A6014E0FA7F3B6808330F
:106CE0001946104602F070FAB861BB69002B06D055
:106CF000104B114A40F2175110480FF079FD3B68D4
:106D00009B68FB60FB681A463968786801F042FFAF
:106D10000B4B1B68002B05DD094B1B681946094806
:106D200010F0E4F9002318462037BD4680BD00BFAF
:106D30003DB8F396A87F020C7881020CB07F020C5C
:106D4000B43303300C80020C80B586B000AF78609D
:106D500039603B681B781A467B68134493F8BC3053
:106D6000FB74FB7C022B05D0FB7C042B02D0FB7C4C
:106D7000032B01D1012300E00023FB603B681B785B
:106D80001946FB682C2203FB02F2582301FB03F394
:106D9000134410337A6813440433BB603B680433F4
:106DA0001946B868FFF7ACFB78617B69002B22DAE3
:106DB0007B6893F8C4301A467B68134493F8BC3060
:106DC000012B0ED0002B19DD023B012B16D87B685E
:106DD00093F8C4301A467B681344012283F8BC2020
:106DE0000DE07B6893F8C4301A467B681344042294
:106DF00083F8BC2003E000237B6100E000BF7B69D7
:106E000018461837BD4680BD80B592B002AF786095
:106E100039607B6893F8C4301A463B6819461046BF
:106E2000FEF7CCF8B863BB6BDBB207F13402114656
:106E30001846FDF79BFAF863FB6B002B02D0012389
:106E4000FB634EE039687868FEF709FF01467A6B0C
:106E500007F11C0001230093402301F00BFFF863AE
:106E6000FB6B002B3AD107F10A0207F10C0107F185
:106E70001C00002301F079FFF863FB6B002B02DAA2
:106E80004FF0FF3332E0FB6B002B02DD0023FB638E
:106E900027E07B890C2B02D00323FB6321E0786B76
:106EA000F9687B8907F11002FDF79EFAF863FB6B26
:106EB000002B02D00123FB6313E03B7C012B02D9A2
:106EC0000723FB630DE007F1100319467868FFF70D
:106ED0003BFFF863FB6B002B02D1C4E700BF00E06F
:106EE00000BF7B6B1846FDF775FAFB6B1846403701
:106EF000BD4680BD80B586B000AF78604FF0FF33EF
:106F00007B617B68002283F8C42055E07B6893F89E
:106F1000C4301A467B68134493F8C530002B08D060
:106F20007B6893F8C4300133DAB27B6883F8C420FD
:106F300042E07B6893F8C4301A467B68134493F8A8
:106F4000BC30012B0CD07B6893F8C4301A467B68A8
:106F5000134493F8BC30052B02D00123FB7401E0ED
:106F60000023FB74FB7C19467868FFF74DFF7861BE
:106F70007B69002B08D17B6893F8C4300133DAB207
:106F80007B6883F8C42017E00023FB6010E0FB68F7
:106F9000DAB27B6883F8C4207B6893F8C4301A4661
:106FA0007B681344012283F8BC20FB680133FB603B
:106FB000FB68012BEBDD04E07B6893F8C430012B08
:106FC000A4D97B6918461837BD4680BD90B585B0F9
:106FD00000AF7860396039687868FFF729FEF8609B
:106FE000FB68002B06D0364B364A40F2016136482A
:106FF0000FF0FEFB7B6893F8C4301A467B6813449D
:1070000093F8BC30FB72FB7A042B02D0FB7A032B83
:1070100014D17B6893F8C430184600F0A7FFF860DD
:10702000FB68002B0AD0FF23FB727B6893F8C43007
:107030001A467B681344FA7A83F8BC20FB7A032B48
:107040001CD17B6893F8C44001217868FEF707FEE5
:1070500003461A4600212046FFF76AFCF860FB68E9
:10706000002B0BD0194810F041F87B6893F8C4301E
:107070001A467B681344FF2283F8BC20FB7A022B5C
:1070800005D0FB7A042B02D0FB7A032B12D17B684C
:1070900093F8C430184600F03FFFF860FB68002BFF
:1070A00008D07B6893F8C4301A467B681344FF22EB
:1070B00083F8BC20FB6818461437BD4690BD00BF5E
:1070C000A87F020C8881020CB07F020C4080020C69
:1070D00080B584B000AF7860396039687868FFF7B0
:1070E000A7FDF860FB68002B06D0324B324A40F215
:1070F000446132480FF07CFB7B6893F8C43019463A
:107100003B68DA797B680B4483F8BC203B68DB7909
:10711000042B03D03B68DB79032B12D17B6893F8F7
:10712000C430184600F022FFF860FB68002B08D03E
:107130007B6893F8C4301A467B681344FF2283F8B7
:10714000BC203B68DB79022B07D03B68DB79042B42
:1071500003D03B68DB79032B12D17B6893F8C430F2
:10716000184600F0D9FEF860FB68002B08D07B6859
:1071700093F8C4301A467B681344FF2283F8BC207E
:107180007B6893F8C4301A467B68134493F8BC308C
:10719000FF2B09D10A480FF0A9FF0A4B064A40F21B
:1071A0005C6106480FF024FBFB6818461037BD46AB
:1071B00080BD00BFA87F020C9C81020CB07F020C36
:1071C0007C80020C8C80020C80B485B000AF7860AB
:1071D0000B46FB707B6893F8C430002B33D0FB78F0
:1071E00083F00103DBB2002B13D07B6893F8C4302B
:1071F0001A467B68134493F8BC30012B25D07B687A
:1072000093F8C4301A467B68134493F8BC30042BBF
:107210001BD00023FB730FE0FB7B7A68134493F8C9
:10722000BC30042B05D1FB7B7A681344012283F820
:10723000BC20FB7B0133FB737B6893F8C430FA7B83
:107240009A42E9D302E000BF00E000BF1437BD4618
:1072500080BC704780B592B000AFF860B960984AC2
:1072600007F13C0392E8030083E80300F868FEF7A7
:1072700079FF78647B6C002B10D0502191480FF07F
:1072800035FFFB6893F8C4301A46FB6813440122AB
:1072900083F8BC207B6C012B00F00E8100220021C2
:1072A000F868FEF711FD78647B6C002B10D0FB684A
:1072B00093F8C430194684480FF018FFFB6893F820
:1072C000C4301A46FB681344012283F8BC20F4E062
:1072D000F86801F001F80346002B00F0E380B8687D
:1072E000FEF788FFB968F86800F094FD78647B6C5D
:1072F000002B10D0FB6893F8C430194673480FF088
:10730000F5FEFB6893F8C4301A46FB68134401226B
:1073100083F8BC20D1E0B868FEF78AFF034683F00B
:107320000103DBB2002B2CD00121F868FFF74CFFE2
:10733000B968F868FFF7CCFE78647B6C002B06D048
:10734000634B644A40F2057163480FF051FABA6822
:107350000021F868FEF7B8FC78647B6C002B06D03F
:107360005B4B5C4A40F20B715B480FF041FAFB68E3
:1073700093F8C4301A46FB681344012283F8BC20FA
:107380009BE0BB68DB79012B0ED1B968F868FFF789
:107390000BFB0246FB6893F8C4301946D2B2FB6877
:1073A0000B4483F8BC2078E007F114031846FEF77D
:1073B00023FB434A07F13C0392E8030083E8030000
:1073C0000123002B0CD03846BB680122F968FFF777
:1073D000D5F807F13C033A4692E8030083E803003E
:1073E00007F1140393E80300FEF75EFB07F12C039B
:1073F00007F13C0292E8030083E80300374A07F1F3
:10740000340392E8030083E8030007F1240307F143
:107410002C0292E8030083E803007A6AB96A304BD1
:107420001B684B409A4201D0FEF7C8FB00BF07F132
:107430001C0307F1340292E8030083E80300FA69B1
:10744000396A274B1B684B409A4201D0FEF7B6FBC6
:1074500000BFFA6A7B6B9A4208D00123002B05D04B
:107460003A6BBB6B9A4201D0012300E00023002B52
:1074700009D0FB6893F8C4301A46FB681344052210
:1074800083F8BC2009E0FB6893F8C4301946BB6858
:10749000DA79FB680B4483F8BC200021F868FFF719
:1074A00093FE0AE0FB6893F8C4301A46FB68134465
:1074B000012283F8BC2000E000BF4837BD4680BDF4
:1074C000140003309080020CD880020C0881020C5A
:1074D000A87F020CB881020CB07F020C0C000330B4
:1074E0000800033090B585B000AF78607B6893F8F2
:1074F000C4301A467B68134493F8BC30012B15D175
:107500007B6893F8C44000217868FEF7A8FB034627
:107510001A4600212046FFF70BFAF860FB68002BA3
:1075200004D005480FF0E2FDFB6800E00023184698
:107530001437BD4690BD00BF3881020C80B5A2B0A3
:1075400000AF78613961FA604FF0FF33C7F88030DF
:10755000B64A07F1500392E8030083E803000023D2
:1075600087F87F303B69002283F8C420B0E03B6994
:1075700093F8C4301A463B69134493F8C530002B86
:1075800040F09D803B6993F8C430BB673B6993F83A
:10759000C4301846BA6F13469B001344DB01A44A5B
:1075A0001A443969582300FB03F30B4424331A604F
:1075B0003B6993F8C4301846BA6F13469B001344D6
:1075C000DB019C4A1A443969582300FB03F30B443E
:1075D00050331A603B69984AC3F8B4200023C7F8B7
:1075E00084302DE0D7F884301946B86FFDF7E6FCFB
:1075F00078677B6FD8B23B6993F8C4301946D7F8E7
:1076000084302C2203FB02F2582301FB03F31344C2
:1076100020333A6913441946FCF7A8FEC7F88000E6
:10762000D7F88030002B06D0844B854A40F2AF71EA
:1076300084480FF0DDF8D7F884300133C7F8843080
:10764000D7F88430012BCDD93B69B03319460520DA
:10765000FCF78CFEC7F88000D7F88030002B06D0EE
:10766000764B774A40F2B47176480FF0C1F807F1D3
:10767000580319463869FFF7EDFD3B6993F8C430AC
:107680001A463B69134493F8BC30022B13D03B6974
:1076900093F8C4301A463B69134493F8BC30042B6A
:1076A00009D03B6993F8C4301A463B69134493F8F8
:1076B000BC30032B04D1012387F87F3000E000BFEA
:1076C0003B6993F8C4300133DAB23B6983F8C420D4
:1076D0003B6993F8C430012B7FF649AF97F87F30B0
:1076E000002B0BD03869FFF705FCC7F88000D7F8EE
:1076F0008030002B02D00023C7F880303B69002285
:1077000083F8C42087E03B6993F8C4301A463B698C
:10771000134493F8C530002B74D107F15803184671
:10772000FEF768FD3B6993F8C4301A463B69134481
:1077300093F8BC3087F85F303B6993F8C4301A4641
:107740003B69134493F8BC30052B22D0052B36DC63
:10775000012B3ED0002B32DD023B022B2FD8012320
:10776000C7F88030D7F88030012B07D107F15803D4
:1077700019463869FFF72AFCC7F88000D7F880302F
:10778000002B28D02D4B2E4A4FF4FF612D480FF0CF
:107790002FF83B6993F8C430184600F0E7FBC7F8B0
:1077A0008000D7F88030002B17D03B6993F8C430A5
:1077B0001A463B691344FF2283F8BC200DE03B6965
:1077C00093F8C4301A463B691344FF2283F8BC2067
:1077D00004E000BF02E000BF00E000BF3B6993F897
:1077E000C4301A463B69134493F8BC30FF2B0AD1CE
:1077F00015480FF07BFC154B114A40F60F0111485C
:107800000EF0F6FF00BF3B6993F8C4300133DAB2E3
:107810003B6983F8C4203B6993F8C430012B7FF6A1
:1078200072AF3B69002283F8C420B6E01400033035
:1078300034270330342C033034310330A87F020C5A
:10784000D881020CB07F020C7C80020C8C80020C70
:107850003B6993F8C4301A463B69134493F8C5302A
:10786000002B40F091803B6993F8C4301A463B6985
:10787000134493F8BC30012B0DD007F158031A467E
:1078800000213869FEF720FAC7F88000D7F8803069
:10789000002B40F09B8007F118031846FEF7ACF868
:1078A000694A07F1500392E8030083E803000123CB
:1078B000002B0CD03846002300223969FEF75EFE0B
:1078C00007F150033A4692E8030083E8030007F10A
:1078D000180393E80300FEF7E7F807F1300307F118
:1078E000500292E8030083E80300584A07F1380386
:1078F00092E8030083E8030007F1280307F1300250
:1079000092E8030083E80300BA6AF96A504B1B68E7
:107910004B409A4201D0FEF751F900BF07F1200316
:1079200007F1380292E8030083E803003A6A796AB3
:10793000474B1B684B409A4201D0FEF73FF900BF0E
:107940003A6BBB6B9A4208D00123002B05D07A6BAF
:10795000FB6B9A4201D0012300E00023002B37D1BA
:107960003869FFF7BFFDC7F88000D7F88030002BDB
:1079700030D100213869FEF7DDF9C7F88000D7F86B
:107980008030002B28D100E000BF3B6993F8C43061
:107990000133DAB23B6983F8C4203B6993F8C43001
:1079A000012B7FF655AF07F158031022002118462E
:1079B0000EF0B3FFF9683869FEF710FA234A07F1B1
:1079C000500392E8030083E8030006E000BF04E0F0
:1079D00000BF02E000BF00E000BF3869FEF753FAC5
:1079E000D7F88030002B21D0D7F880303B673B6F31
:1079F000BB66174B1A683B6F5340FB6607F14003A9
:107A000007F1680292E8030083E8030007F14803E6
:107A100007F1400292E8030083E8030007F15003F6
:107A200007F1480292E8030083E80300FEF782F8BA
:107A30007B691A4607F1500393E8030082E80300CC
:107A400078698837BD4680BD140003300C000330D0
:107A50000800033080B588B000AFF860B9601D4AF7
:107A600007F1180392E8030083E80300002000F008
:107A700035F807F110031846FDF7BEFF154A07F168
:107A8000180392E8030083E803000123002B0CD0C5
:107A90003B46BA6810491846FFF750FD07F1180336
:107AA0003A4692E8030083E8030007F1100393E8E5
:107AB0000300FDF7F9FFFEF73DF8FB681A4607F1F2
:107AC000180393E8030082E80300F8682037BD46F6
:107AD00080BD00BF140003306C21033080B582B03C
:107AE00000AF78607B68002B05D0C8220021786841
:107AF0000EF013FF04E0C822002103480EF00DFF32
:107B000000BF0837BD4680BD6C21033080B483B010
:107B100000AF78607B681B7818460C37BD4680BC88
:107B2000704780B483B000AF78607B681B681846EC
:107B30000C37BD4680BC704780B483B000AF78601E
:107B40007B685B6818460C37BD4680BC704780B4C4
:107B500083B000AF786039607B6893F8C430184612
:107B60007A683B682C2103FB01F1582300FB03F3E7
:107B70000B44134428331B6818460C37BD4680BCA1
:107B8000704780B584B000AFF860B9607A60FB6878
:107B900093F8C4301846FA68BB682C2103FB01F146
:107BA000582300FB03F30B44134424331A687B6807
:107BB000DB0013441846FFF7BFFF03461846103793
:107BC000BD4680BD90B585B000AFF860B9607A6001
:107BD000FB6893F8C4301846FA68BB682C2103FB95
:107BE00001F1582300FB03F30B44134424331A68B8
:107BF0007B68DB0013441846FFF793FF0446FB68DD
:107C000093F8C4301846FA68BB682C2103FB01F1D5
:107C1000582300FB03F30B44134424331B6818461A
:107C2000FFF77FFF0346E31A18461437BD4690BDA1
:107C300080B58CB000AF786039603868FFF766FFB8
:107C40007B6893F8C43087F8233097F823300021FD
:107C50001846FDF7B3F9F86197F82330012118466B
:107C6000FDF7ACF9B8613868FFF750FF03461A46D4
:107C7000FB69934203D1002387F82F300DE0386869
:107C8000FFF744FF03461A46BB69934203D1012321
:107C900087F82F3001E001233CE097F82F30194698
:107CA0007868FFF754FF0346013BBB627B68D3F85B
:107CB000C030184601F05CF9786100237B6297F8C8
:107CC0002F30BA6A19467868FFF75BFF386197F87A
:107CD0002F30BA6A19467868FFF774FFF8603A697E
:107CE000F9683868FEF750FFB860BB68002B05D014
:107CF0000A4B0B4A49210B480EF07AFDBB6A013B47
:107D0000BB627A6A3B6913447B627A6A7B699A42F6
:107D1000D5D3BB6818463037BD4680BDE881020C1C
:107D20005482020CF081020C80B588B000AFF8607C
:107D3000B9607A60FB6893F8C430FB77B868FFF7E6
:107D4000E5FEFB7F002B06D0FB7F012B01D1042336
:107D500002E0FF2300E0032307F11002114618465A
:107D600001F009FCB861BB69002B05D0264B274AFE
:107D7000652127480EF03CFD7B68DB79012B10D094
:107D80007B68DB79FA7F1946B86801F0D5FCB861E9
:107D9000BB69002B05D01C4B1C4A69211C480EF006
:107DA00027FDFB7C012B0CD1B86801F09AFCB8616F
:107DB000BB69002B05D0144B144A6E2114480EF0F9
:107DC00017FD7B689B681946B86801F039FAB861FD
:107DD000BB69002B05D00C4B0C4A72210C480EF0ED
:107DE00007FDB86801F0EAFBB861BB69002B05D05C
:107DF000054B064A7D2106480EF0FAFC0023184682
:107E00002037BD4680BD00BFE881020C7082020CA5
:107E1000F081020C80B588B000AF78603960786876
:107E200000F01CFB02463B68DA603B68DB68022B13
:107E30000BD0022B1ADC002B02D0012B02D015E054
:107E400000235FE00523FB6116E07B6893F8C430F4
:107E5000002B08D07B6893F8C430012B01D102239A
:107E600002E0FF2300E00123FB6105E0274B284AE5
:107E70009B2128480EF0BCFCFB69DBB207F1100225
:107E800011461846FCF772FAB861BB69002B01D0A5
:107E9000012337E03B693A687968184600F076F9C3
:107EA000B861BB69002B27D13B69184601F053FA32
:107EB0007861386907F10F0201237969FCF794FAB8
:107EC000B861BB69002B02D00123BB6115E03B699F
:107ED00007F10F010122184601F06DFA0346002B4D
:107EE00003D00123FB730023BB61FB7B03F00F0373
:107EF000DAB23B68DA7100E000BF3B691846FCF774
:107F000069FABB6918462037BD4680BD5082020C15
:107F10008482020CF081020C80B584B000AF03466D
:107F2000FB71FB79002B06D0FB79012B01D10223D9
:107F300002E0FF2300E0012307F108021146184682
:107F4000FCF714FAF860FB68002B01D0012309E06C
:107F5000BB68184601F05CF9F860BB681846FCF78E
:107F600039FAFB6818461037BD4680BD80B586B02B
:107F700000AF0346FB71FB79002B06D0FB79012B88
:107F800001D1022302E0FF2300E0012307F11002E8
:107F900011461846FCF7EAF978617B69002B01D09D
:107FA00001231CE03B6907F108021146184601F065
:107FB0006EFA78617B69002B02D001237B6109E0B6
:107FC000FB7A032B05D13B69184601F08AFB7861E7
:107FD00000E000BF3B691846FCF7FCF97B691846D6
:107FE0001837BD4680BD80B483B000AF78607B6831
:107FF000DB6818460C37BD4680BC704780B483B040
:1080000000AF78607B681B6818460C37BD4680BCA3
:10801000704780B483B000AF78607B685B681846B7
:108020000C37BD4680BC704780B483B000AF786029
:1080300039607B6893F8C43018467A683B682C2115
:1080400003FB01F1582300FB03F30B4413442833D3
:108050001B6818460C37BD4680BC704780B584B09D
:1080600000AFF860B9607A60FB6893F8C4301846D6
:10807000FA68BB682C2103FB01F1582300FB03F3D2
:108080000B44134424331A687B68DB0013441846FE
:10809000FFF7BFFF034618461037BD4680BD90B5B9
:1080A00085B000AFF860B9607A60FB6893F8C430BF
:1080B0001846FA68BB682C2103FB01F1582300FB2A
:1080C00003F30B44134424331A687B68DB00134426
:1080D0001846FFF793FF0446FB6893F8C430184630
:1080E000FA68BB682C2103FB01F1582300FB03F362
:1080F0000B44134424331B681846FFF77FFF0346E5
:10810000E31A18461437BD4690BD80B582B000AF63
:1081100078607B68D3F8B0301846FFF764FF0346F9
:1081200018460837BD4680BD80B588B000AFF860FE
:10813000B9607A603B600023FB61FB6893F8C43050
:10814000B9681846FCF73AFFB861BB69DBB207F1C2
:10815000140211461846FCF709F9F861FB69002B77
:108160000AD1786920237A680021FCF73DF9F8618B
:108170007B691846FCF72EF9FB69002B01D001231F
:10818000FB61FB6918462037BD4680BD80B58CB0C9
:1081900000AFF860B9607A60F86800F043FFF861FA
:1081A000BB6893F8C430F968184600F001FFB86165
:1081B000BB69002B01DA07236AE00023FB6200237E
:1081C000BB6200237B6200233B6235E0BB68D3F8CF
:1081D000C0303A6A03FB02F2FB69D11807F11302BF
:1081E0000123F868FCF700F978617B69002B01DA5C
:1081F00001234DE007F1130301221946F86801F04D
:10820000DAF80346002B08D0FB6A002B11D0BB6ABA
:10821000002B0ED13B6ABB620BE0FB6A002B02D144
:108220000123FB6205E0BB6A002B02D001237B62C5
:1082300006E03B6A01333B623A6ABB699A42C5DB9E
:108240007B6A002B02D014480EF050FFFB6A002B13
:108250001DD0BB6A002B01D13B6ABB62BB6A0F4ACF
:1082600082FB0312DB17D31A01331A467B681A60AC
:10827000BA6A0A4B83FB0231D317C91A0B465B005B
:108280000B44D11ACBB20133DAB27B681A710023E6
:1082900018463037BD4680BD9882020C565555555C
:1082A00080B485B000AF786039603A6813465B00EF
:1082B0001344FB607B681B68013BFA6802FB03F315
:1082C0007A681279013A396801FB02F213441846C0
:1082D0001437BD4680BC704780B58CB000AF786065
:1082E00000217868FFF7A0FE386101217868FFF768
:1082F0009BFEF8603B69502B02D8FB68502B04D9D9
:1083000052480EF0F3FE00239BE07868FFF7FDFE75
:10831000B86000237B627B6AFB62FB6AFB6100231F
:108320003B623B6ABB62BB6ABB610023FB756EE0CC
:10833000FA6ABB6A9A4218D1FA6900217868FFF795
:108340008DFE0246FB6A1344FB62BA69012178681C
:10835000FFF784FE0246BB6A1344BB62FB6901332C
:10836000FB61BB690133BB6132E0FA6ABB6A9A42C6
:1083700017D2FA6900217868FFF770FE0246FB6A9F
:108380001344FB6297F91730022B04D130480EF0EA
:10839000ADFE002355E00123FB75FB690133FB6152
:1083A00016E0BA6901217868FFF758FE0246BB6AF9
:1083B0001344BB6297F91730012B04D124480EF007
:1083C00095FE00233DE00223FB75BB690133BB61D1
:1083D000FA6ABB6A9A421AD17A6AFB6A13447B62D0
:1083E0003A6ABB6A13443B62FA6ABB689A4203D892
:1083F000BA6ABB689A4204D916480EF077FE002389
:108400001FE00023BB62BB6AFB62FB6AFB75FA6973
:108410003B699A428CD3BA69FB689A4288D3FA695D
:108420003B699A4207D1BA69FB689A4203D17A6ADA
:108430003B6A9A4204D008480EF058FE002300E040
:10844000012318463037BD4680BD00BFC082020CF4
:10845000F482020C3083020C6C83020C80B58CB069
:1084600002AF78607B6893F8C43087F8223097F8C1
:108470002230002B07D097F82230012B01D10223A4
:1084800002E0FF2300E0012307F10802114618462D
:1084900001F071F8F861FB69002B06D0504B514A8E
:1084A0004FF4BD7150480EF0A3F907F110031946BF
:1084B000052001F060F8F861FB69002B06D0484BFD
:1084C000484A4FF4BF7148480EF092F93B7A012BAD
:1084D00006D03B7A032B01D1444A02E0444A00E033
:1084E000444A7B7A1846BB7AF97A01910093034695
:1084F000414942480EF0FAFD3B7C012B06D03B7C03
:10850000032B01D1394A02E0394A00E0394A7B7C29
:108510001846BB7CF97C01910093034638493748E3
:108520000EF0E4FD00237B624FE07B6A9B00354A3E
:108530001344BB61BB691B783A7A1146184600F0B8
:1085400017FF0346002B3DD0BB695B783A7C114690
:10855000184600F00DFF0346002B33D0BB699B7813
:10856000042B04D0BB699A78BB7A9A422AD1BB69A2
:10857000DB7887F8233097F82330012B08D13A7D38
:108580007B6893F8C4309A4202D0002387F82330E6
:1085900097F82330002B0DD097F82330012B07D00C
:1085A00097F82330022B01D1174B04E0174B02E060
:1085B000174B00E0174B194617480EF097FD97F838
:1085C000233009E07B6A01337B627B6A032BACD9E1
:1085D00012480EF08BFD002318462837BD4680BD9B
:1085E000A083020C2485020CA883020C0C84020CCC
:1085F0001484020C1884020C2084020C3084020CB7
:108600007484020C1485020C7C84020C8C84020C91
:10861000A084020CA884020CB084020CC884020C52
:1086200080B588B000AFF860B9607A600023FB6164
:10863000F868FFF76AFD7861BB68BB6112E0BB694F
:108640001A460021F868FFF709FD0246FB6913444A
:108650003B613A697B699A4208D83B69FB61BB6917
:10866000013BBB61BB69002BE9DA00E000BFBB69DD
:108670005A1C7B681A60FB6918462037BD4680BDCE
:1086800090B597B002AFF860B9607A603B60FB6864
:108690001A4600217868FFF702FD3864BB68FB6466
:1086A0007B68D3F8C030184600F062FCF863002104
:1086B0007868FFF7B9FC0346013BBB64BA6C002144
:1086C0007868FFF7CBFCB863BA6BFB6B9A4213D2A6
:1086D000BB6B7B640CE0BB6C013BBB64BA6C0021E0
:1086E0007868FFF7BBFCB8637A6CBB6B13447B64A0
:1086F0007A6CFB6B9A42EED33A6CBB68D418BA6CB6
:1087000000217868FFF7CBFC03469C4203D9FA6C42
:10871000FB6BD31AFB643B681B68012B05D1FA6C19
:10872000BB689A4201D0012300E00023DAB23B6823
:108730009A717B6893F8C43087F8373097F83730F0
:10874000002B07D097F83730012B01D1022302E02C
:10875000FF2300E0012307F1240211461846FBF72E
:1087600005FE38633B6B002B06D0974B974A4FF4BE
:10877000087197480EF03CF897F83730002B07D077
:1087800097F83730012B01D1042302E0FF2300E0EA
:10879000032307F1200211461846FBF7E7FD386373
:1087A0003B6B002B06D0884B884A4FF409718848F0
:1087B0000EF01EF807F11C0319460520FBF7D6FD45
:1087C00038633B6B002B06D07F4B804A40F2272159
:1087D0007F480EF00DF83B681B79012B40F08B8031
:1087E000FC69FB691846FFF7FEFB03461A460021A9
:1087F0002046FEF7C9F938633B6B002B06D0724B5D
:10880000724A4FF40B7172480DF0F2FF3B681B681F
:10881000012B4BD1FB693A6819467868FFF784FA57
:1088200038633B6B002B06D0674B684A4FF40D71E1
:1088300067480DF0DDFF3B689B79002B36D17B6AE2
:1088400019467868FFF7F4F938633B6B002B06D0C4
:108850005D4B5E4A4FF40F715D480DF0C9FF7B6AB6
:108860003A6819467868FFF75FFA38633B6B002B6C
:1088700006D0554B554A40F23F2155480DF0B8FF00
:10888000FC69FB691846FFF7AEFB03461A46002158
:108890002046FEF779F938633B6B002B06D04A4B34
:1088A0004A4A4FF411714A480DF0A2FF396AFA6939
:1088B000FB6C0193002300933B6C7868FEF774F91E
:1088C00038633B6B002B06D03F4B404A40F24A21B5
:1088D0003F480DF08DFF39687868FDF7C4FC3863B8
:1088E0003B6802221A713B6B002B04D0394B1B688A
:1088F0000133384A13603B681B79022B4DD13B6A28
:10890000BA68396C1846FEF73FF938633B6B002BA9
:1089100006D02D4B2D4A40F253212D480DF068FF13
:10892000796A3A6AFB6C01933B6C00933B6C786804
:10893000FEF73AF938633B6B002B06D0224B234AF3
:1089400040F2572122480DF053FF3B681B68012B72
:1089500013D13B689B79002B0FD13B6A194678688D
:10896000FFF766F938633B6B002B06D0164B174AAE
:1089700040F25E2116480DF03BFF39687868FDF73C
:1089800072FC38633B6803221A713B6B002B04D0E6
:10899000104B1B6801330F4A13603B681B79032B94
:1089A00040F0E0807B6ABA68396C1846FEF7ECF854
:1089B00038633B6B002B0FD0034B044A4FF41A7102
:1089C00003480DF015FF00BFA083020C3885020C90
:1089D000A883020CB4330330F9697A6AFB6C019303
:1089E0003B6C009300237868FEF7DEF838633B6B3E
:1089F000002B06D0634B644A40F26F2163480DF0B0
:108A0000F7FE3B689B79002B77D0FB69184600F096
:108A100009FBF862F969786A3A6CFB6C13447A686E
:108A2000D2F8C020520001920093FB6A0246786897
:108A3000FEF7BAF838633B6B002B04D0544B1B682D
:108A40000133534A1360FB6907F1140211461846BB
:108A500000F01DFD38633B6B002B06D0494B4A4AA2
:108A600040F27B2149480DF0C3FEFB7D012B0ED166
:108A70007B6A184600F035FE38633B6B002B06D04E
:108A8000404B414A40F27F2140480DF0B1FE7B7DD2
:108A9000012B11D07B6A797D97F83720184600F0BA
:108AA0004BFE38633B6B002B06D0364B364A40F208
:108AB000852136480DF09CFE7A6A3B689B68194612
:108AC000104600F0BDFB38633B6B002B06D02D4BEE
:108AD0002D4A40F289212D480DF08AFE7B6A184606
:108AE00000F06CFD38633B6B002B06D0254B264A0B
:108AF00040F2932125480DF07BFE3B689B79002BCB
:108B000014BF0123002387F82B303B6800229A71A1
:108B100039687868FDF7A7FB38633B681B685A1C07
:108B20003B681A603B6801221A713B6B002B04D032
:108B3000174B1B680133164A136097F82B30002B34
:108B400010D0FB69BA6800211846FEF71DF838639B
:108B50003B6B002B06D00B4B0B4A40F2A5210B4878
:108B60000DF046FE7B6A1846FBF734FC3B6A18465C
:108B7000FBF730FCFB691846FBF72CFC00BF5437B1
:108B8000BD4690BDA083020C3885020CA883020C60
:108B9000B433033080B58CB000AFF860B9607A6050
:108BA00000233B620023FB610023FB6200237B6206
:108BB0002F480EF09BFA3A6A7B689A4203D33A6ACE
:108BC000FB699A4209D2FB6A1A460021F868FFF74E
:108BD00045FA02463B6A13443B62FA697B689A4253
:108BE00003D3FA693B6A9A4209D27B6A1A46012189
:108BF000F868FFF733FA0246FB691344FB613A6AEF
:108C00007B689A4207D3FA697B689A4203D33A6A2F
:108C1000FB699A4206D0FB6A0133FB627B6A01332F
:108C20007B62C8E700BF0023BB6219E007F11403B1
:108C30001A46F96AF868FFF7F3FCB861BB681B686D
:108C4000013BBA6A9A4205D37869BB68FA68B96988
:108C5000FFF716FD7B69013BFB62BB6A0133BB6218
:108C6000FB6A002BE2DA00BF00BF3037BD4680BD93
:108C7000E484020C80B586B000AFF860B9607A6019
:108C80007B80FB68002B05D0BB68002B02D07B6883
:108C9000002B02D14FF0FF3363E0BB681B891A46FB
:108CA000BB68DB6813447B6107F110020423796918
:108CB0007868FBF799FB0346002B02D04FF0FF3397
:108CC0004FE03B8A46F60812934217D1BB685A8997
:108CD0007B8A9A4202D04FF0FF3342E07B8A1A46E9
:108CE0007B69D11807F1100204237868FBF77CFB3D
:108CF0000346002B09D04FF0FF3332E0BB685B899D
:108D0000002B02D04FF0FF332BE03B8A46F60712D0
:108D1000934202D04FF0FF3323E0FB68BA681A6039
:108D2000FB687A685A60FB687A881A81FB6897F852
:108D300020209A72FB681B685B891A467B691A447B
:108D4000FB68DA60FB681B685B891A467B69134421
:108D50007A8A1A44FB685A617B691A1DFB681A619A
:108D6000002318461837BD4680BD80B586B000AFD9
:108D7000F860B9607A603B60FB68002B07D0FB6845
:108D80001B68002B03D0FB685B68002B57D14FF0AA
:108D9000FF335BE0FB681B685B89002B0AD0FB6834
:108DA0001A69FB68DB689A4204D1FB681B691A1DCB
:108DB000FB681A61FB685868FB68196907F11002C3
:108DC0000423FBF711FB78617B69002B02D04FF085
:108DD000FF333BE0FB689B7A002B07D0FB681A69E6
:108DE000FB68DB689A4201D301232FE0FB681B89F3
:108DF0004FF6FF72934204D03A8AFB681B899A426D
:108E000016D13B68002B02D03A8A3B681A80FB6877
:108E10001B691A1DBB681A607A8A7B681A80FB6816
:108E20001B697A8A13441A1DFB681A6100230DE03E
:108E3000FB681B697A8A13441A1DFB681A61FB6878
:108E40001A69FB685B699A42A4D301231846183754
:108E5000BD4680BD80B483B000AF78607B681B786E
:108E600018460C37BD4680BC704780B483B000AF55
:108E700078607B689B6818460C37BD4680BC70479D
:108E800080B483B000AF78607B68DB6818460C372D
:108E9000BD4680BC7047000080B58AB000AFF86066
:108EA000B9607A603B60BB683B627B68FB611C4ACF
:108EB00007F1140392E8030083E8030000237B62B8
:108EC0000CE03A6A7B6A13441A78F9697B6A0B44AE
:108ED0001B789A4212D17B6A01337B627A6A3B68C3
:108EE0009A42EED37A6A3B689A4209D10D4A07F159
:108EF000140392E8030083E8030002E000BF00E0EF
:108F000000BFFCF717FEFB681A4607F1140393E84D
:108F1000030082E80300F8682837BD4680BD00BF23
:108F2000140003300C00033080B400AF5023184607
:108F3000BD4680BC704780B483B000AF78607A686B
:108F400013465B00134418460C37BD4680BC70477F
:108F500080B582B000AF78607868FFF7ECFF02461A
:108F600013469B0013441B0118460837BD4680BDBD
:108F700090B583B000AF78607868FFF7E9FF0446EA
:108F8000FFF7D2FF0346234418460C37BD4690BD79
:108F900090B583B000AF78607868FFF7CCFF0446E7
:108FA000FFF7C2FF0346234418460C37BD4690BD69
:108FB00080B582B000AF786039603868FFF74AFF4B
:108FC0000346052B01D1032327E03868FFF742FF52
:108FD00003461A467B68002B06D07B68012B01D123
:108FE000022302E0FF2300E00123934211D03868FE
:108FF000FFF730FF03461A467B68002B06D07B68DC
:10900000012B01D1042302E0FF2300E0032393425C
:1090100001D1F02301E04FF0FF3318460837BD4679
:1090200080BD000080B584B000AF78607868FBF741
:10903000FFFBB8607B681B78052B04D1B868FFF78D
:10904000A7FFF86003E0B868FFF792FFF860786860
:10905000FFF716FF0246FB68934205D9074B084A03
:10906000B82108480DF0C4FB7868FFF709FF0246F5
:10907000FB68D31A18461037BD4680BD4C85020CDC
:10908000DC85020C7885020C80B582B000AF786078
:109090001022074978680DF023FC0346002B01D10C
:1090A000012300E0022318460837BD4680BD00BFFB
:1090B000EC85020C80B582B000AF78607868FFF76D
:1090C000DFFE0346103B18460837BD4680BD80B51D
:1090D00082B000AF78607868FFF7ECFF0346103B82
:1090E00023F00F0318460837BD4680BD80B582B017
:1090F00000AF78607868FFF7EAFF0346103B184638
:109100000837BD4680BD80B582B000AF7860786812
:1091100000F021F90346103B18460837BD4680BDD4
:1091200080B58AB000AF7860396005233B727B68F8
:10913000002B06D07B68012B01D1022302E0FF2324
:1091400000E001237B7200237B6234E007F1080218
:109150007B6A13441B7839681846FBF707F93862B5
:109160003B6A002B01D03B6A2AE03B681B6818462B
:10917000FFF7A0FFF8613B68186807F10C021023A5
:10918000F969FBF731F938623B681B681846FBF751
:1091900021F93B6A002B01D03B6A11E007F10C0377
:1091A0001846FFF771FF0346012B01D1002307E0AA
:1091B0007B6A01337B627B6A012BC7D94FF0FF3397
:1091C00018462837BD4680BD80B586B000AF7860B0
:1091D000396007F10C0319467868FFF7A1FF786141
:1091E0007B69002B0FD1FB681846FFF78CFF3861B5
:1091F000F86804233A683969FBF7F6F87861FB6888
:109200001846FBF7E7F87B6918461837BD4680BD5E
:1092100080B584B000AF78607868FFF767FFF860CA
:109220007868FFF717FE7868FFF71FFE0122F968DC
:10923000786800F041FA034618461037BD4680BDF5
:1092400080B584B000AF786039607868FFF75BFF65
:10925000F8607868FFF7FEFD7868FFF706FE3A468B
:109260000423F968786800F0E3F9034618461037DC
:10927000BD4680BD80B483B000AF78607B681B784A
:1092800018460C37BD4680BC704780B483B000AF31
:1092900078607B689B6818460C37BD4680BC704779
:1092A00080B483B000AF78607B68DB6818460C3709
:1092B000BD4680BC7047000080B582B000AF7860CA
:1092C0001022074978680DF00BFB0346002B01D1F3
:1092D000012300E0022318460837BD4680BD00BFC9
:1092E000EC85020C80B483B000AF0346FB71FB79C0
:1092F000012B01D0022300E0012318460C37BD46A4
:1093000080BC704780B582B000AF78607868FFF7A6
:10931000C7FF0346103B18460837BD4680BD80B5E1
:1093200082B000AF78607868FFF7ECFF0346103B2F
:1093300023F00F0318460837BD4680BD80B582B0C4
:1093400000AF78607868FFF7EAFF0346103B1846E5
:109350000837BD4680BD80B582B000AF78607868C0
:10936000FFF7ECFF0346103B18460837BD4680BDAB
:1093700080B483B000AF03460A46FB711346BB714D
:10938000FB79042B02D0052B02D008E001230DE06D
:10939000BB79012B14BF01230023DBB206E0FA796D
:1093A000BB799A420CBF01230023DBB218460C376D
:1093B000BD4680BC704780B588B000AFF860B9602A
:1093C0007A60BB68002B02D07B68002B01D10023A0
:1093D0001AE0F868FBF725FE0346FB760023FB61E5
:1093E000BB687B610BE07A69FB6913441B78FA7EEA
:1093F0009A4201D0002307E0FB690133FB61FA695F
:109400007B689A42EFD3012318462037BD4680BDC2
:1094100080B586B000AFF860B9607A600123BA68A1
:109420007968F868FAF7E0FF78617B69002B01DA68
:10943000012315E00122B968F868FFF7BCFF034675
:10944000002B03D0BB6803221A7008E0BB681B78AE
:109450001846FFF747FF0346DAB2BB681A700023CD
:1094600018461837BD4680BD80B582B000AF786021
:1094700039607868FFF762FF03461A4639687868F2
:10948000FFF7C6FF034618460837BD4680BD80B5C6
:109490008AB000AF786039607868FFF733FF786290
:1094A00007F110021023796A7868FAF79DFF386295
:1094B0003B6A002B01DA012359E007F11003102267
:1094C00019467868FFF777FF0346002B03D03B6807
:1094D00003221A7008E007F110031846FFF7ECFEAC
:1094E0000346DAB23B681A707868FFF734FF786297
:1094F00007F10F020123796A7868FAF775FF38627D
:109500003B6A002B01DA012331E0FB7B03F00F0300
:10951000DAB23B685A70FB7B1B09DAB23B681A71FE
:1095200007F10F03012219467868FFF744FF03464D
:10953000002B03D13B685B78042B05D93B680122E3
:109540005A703B6800221A713B68023319467868EA
:10955000FFF78AFF38623B6A002B01D0012306E047
:109560003B6803331946786800F0D3F80346184681
:109570002837BD4680BD80B584B000AF78603960C3
:109580007B68DBB207F1080211461846FAF7EEFED7
:10959000F860FB68002B01D001230AE0BB68396842
:1095A0001846FFF774FFF860BB681846FAF712FF19
:1095B000FB6818461037BD4680BD000080B58AB0F4
:1095C00000AF78607868FFF79DFE78627B6A23F0D1
:1095D0000F033B627868FBF724FD0346FB77F97FB6
:1095E00007F10803102218460DF097F907F1080358
:1095F00010220E4918460DF083F97868FFF73AFEFD
:109600007868FFF742FE07F108021023396A78688C
:10961000FAF786FFB861BB69002B01D0012300E097
:10962000002318462837BD4680BD00BFEC85020CDC
:1096300080B58CB000AFF860B9607A60FB70F868F4
:10964000FBF7F6F8F862FA78FB6A13445A1EFB6AD5
:109650005B421340FB62FB6A102B02D94FF0FF33D1
:1096600026E0F868FBF7DDFC034687F82B30FA7834
:1096700007F11403796818460DF042F9FB7807F1F9
:109680001402D01897F82B10FB78FA6AD31A1A46EE
:109690000DF043F907F11402FB6AB968F868FAF7AC
:1096A0003FFF78627B6A002B01D0012300E000239A
:1096B00018463037BD4680BD80B586B000AFF86033
:1096C000B9601346FB71FB793B7507F11402012366
:1096D000B968F868FFF7ACFF034618461837BD466F
:1096E00080BD80B584B000AF78607868FFF717FE62
:1096F000F8607868FFF7BEFD7868FFF7C6FD0122C5
:10970000F9687868FFF7D8FF034618461037BD465A
:1097100080BD80B582B000AF786039607868FFF7AF
:10972000FEFD03461A4639687868FFF771FE034666
:1097300018460837BD4680BD80B584B000AF78605C
:109740000B46FB701346BB70BB780E2B06D9184B2B
:10975000184A40F2B11118480DF04AF8FB780E2B68
:1097600006D9164B134A40F2B11113480DF040F8D8
:10977000BB781B015AB297F9033013435BB2DBB2DB
:10978000FB727868FFF7E7FDF8607868FFF772FD15
:109790007868FFF77AFD07F10B020123F968786812
:1097A000FFF746FF034618461037BD4680BD00BF91
:1097B0001086020C4C87020C2486020C8886020C50
:1097C00080B58AB000AF786001237B627B6A012B91
:1097D00011D17B68002B06D07B68012B01D10223BD
:1097E00002E0FF2300E0012307F1140211461846AE
:1097F000FFF7C1FE78627B6A002B01D0FF2395E062
:109800007B68002B06D07B68012B01D1042302E08A
:10981000FF2300E0032307F10C0211461846FFF76F
:10982000AAFE78627B6A012B0ED1796841480DF05F
:109830005DFC03233B7301237B730323BB7303236F
:10984000FB7300233B7404E07B6A002B01D0FF23F1
:109850006CE000233B6262E03A6A13465B0013440B
:109860005B001A46344B1344FB61FB691B783A7D5D
:1098700011461846FFF77CFD0346002B4CD0FB69D0
:109880005B783A7B11461846FFF772FD0346002BC2
:1098900042D0FB699B78042B04D0FB699A78FB7D4E
:1098A0009A4239D1FB69DB78042B04D0FB69DA7862
:1098B000FB7B9A4230D1FB691B79042B04D0FB69F6
:1098C0001A79BB7D9A4227D1FB695B79022B0DD0B7
:1098D000FB695B79032B07D0FB695B79042B01D112
:1098E000164B04E0164B02E0164B00E0164B1946EF
:1098F00016480DF0FBFBFB695B79022B09D0FB6975
:109900005B79032B05D0FB695B79042B01D0FF2326
:109910000CE0FB695B7909E03B6A01333B623B6A1F
:10992000022B99D90A480DF0E1FB0123184628378C
:10993000BD4680BD9C86020CFC85020CEC86020CA8
:10994000F486020C0887020C1087020C1887020CA0
:109950003087020C80B582B000AF7860786803F081
:109960008FFA0021786803F08FFA00BF0837BD46F0
:1099700080BD80B483B000AF786000BF0C37BD46B7
:1099800080BC704780B584B000AFF860B9607A6081
:109990007A68B968F86803F0D3FE034618461037B2
:1099A000BD4680BD80B582B000AF7860396039684F
:1099B000786803F0CBFE034618460837BD4680BDE5
:1099C00080B5A6B000AFF860B9607A603B6007F17F
:1099D00014031846FFF7BEFFD7F8AC30002B0CD0AD
:1099E000D7F8B030002B08DDD7F8B02007F114030A
:1099F000D7F8AC101846FFF7C5FF7B681B89A7F89E
:109A00008E30B7F88E30C7F888307B68DB68D7F8BF
:109A100088201344C7F88830D7F88830C7F88430D6
:109A20007B685B891A46D7F888301344C7F88830BA
:109A30000023C7F8903037E0D7F88820D7F8903067
:109A4000D31AC7F89430D7F89420D7F8A4309A42A4
:109A500003D9D7F8A430C7F89430D7F89430D7F8A2
:109A6000A020D7F890103868FAF7BEFCC7F880003D
:109A7000D7F88030002B07D007F114031846FFF702
:109A800078FFD7F8803022E007F11403D7F894204C
:109A9000D7F8A0101846FFF775FFD7F89020D7F831
:109AA00094301344C7F89030D7F89020D7F8883016
:109AB0009A42C1D307F11403D7F8A8101846FFF74C
