:020000040C03EB
:10A000003DB8F3960000000000047B00C0D80300B8
:10A01000000000000105000000000000000000003A
:10A02000FFFFFFFFFFFFFFFFFFFFFFFFFFFFFFFF40
:10A03000FFFFFFFFFFFFFFFFFFFFFFFFFFFFFFFF30
:10A04000FFFFFFFFFFFFFFFFFFFFFFFFFFFFFFFF20
:10A05000FFFFFFFFFFFFFFFFFFFFFFFFFFFFFFFF10
:10A40000002C0230B5A9030CA961040CFDCB040C8F
:10A4100011CC040C25CC040C39CC040C97CB040CC7
:10A42000000000000000000000000000ADCB040CA4
:10A43000C1A6030C000000005DCB040CC7A6030CF2
:10A44000CDA6030CD3A6030CD9A6030CDFA6030CE0
:10A450006551040CE5A6030CEBA6030CF1A6030C56
:10A46000F7A6030CFDA6030C03A7030C09A7030C16
:10A470000FA7030C15A7030C1BA7030C21A7030CA4
:10A4800027A7030C2DA7030C33A7030C39A7030C34
:10A490003FA7030C45A7030C4BA7030C51A7030CC4
:10A4A00057A7030C5DA7030C63A7030C69A7030C54
:10A4B0006FA7030C75A7030C7BA7030C81A7030CE4
:10A4C00087A7030C8DA7030C93A7030C99A7030C74
:10A4D0009FA7030CA5A7030CABA7030CB1A7030C04
:10A4E000B7A7030CBDA7030CC3A7030CC9A7030C94
:10A4F000CFA7030CD5A7030CDBA7030CE1A7030C24
:10A50000E7A7030CEDA7030CF3A7030CF9A7030CB3
:10A51000FFA7030C05A8030C0BA8030C11A8030C40
:10A5200017A8030C1DA8030C23A8030C29A8030CCF
:10A530002FA8030C35A8030C3BA8030C41A8030C5F
:10A5400047A8030C4DA8030C53A8030C59A8030CEF
:10A550005FA8030C65A8030C6BA8030C71A8030C7F
:10A5600077A8030C7DA8030C83A8030C89A8030C0F
:10A570008FA8030C95A8030C9BA8030CA1A8030C9F
:10A58000A7A8030CADA8030CB3A8030CB9A8030C2F
:10A59000BFA8030CC5A8030CCBA8030CD1A8030CBF
:10A5A000D7A8030CDDA8030CE3A8030CE9A8030C4F
:10A5B000EFA8030CF5A8030CFBA8030C01A9030CDE
:10A5C00007A9030C0DA9030C13A9030C19A9030C6B
:10A5D0001FA9030C25A9030C2BA9030C31A9030CFB
:10A5E00037A9030C3DA9030C43A9030C49A9030C8B
:10A5F0004FA9030C55A9030C5BA9030C61A9030C1B
:10A6000067A9030C6DA9030C73A9030C79A9030CAA
:10A610007FA9030C85A9030C8BA9030C91A9030C3A
:10A6200097A9030C9DA9030CA3A9030CA9A9030CCA
:10A63000AFA9030C80B483B000AF0346FB7197F958
:10A640000730002B0BDBFB7903F01F02064997F95B
:10A6500007305B09012000FA02F241F8232000BF15
:10A660000C37BD4680BC704700E100E080B483B089
:10A6700000AF03463960FB7197F90730002B0ADB06
:10A680003B68DAB20C4997F907301201D2B20B4499
:10A6900083F800230AE03B68DAB20849FB7903F04B
:10A6A0000F03043B1201D2B20B441A7600BF0C37E1
:10A6B000BD4680BC704700BF00E100E000ED00E057
:10A6C00080B400AFFEE780B400AFFEE780B400AF17
:10A6D000FEE780B400AFFEE780B400AFFEE780B4D1
:10A6E00000AFFEE780B400AFFEE780B400AFFEE746
:10A6F00080B400AFFEE780B400AFFEE780B400AFE7
:10A70000FEE780B400AFFEE780B400AFFEE780B4A0
:10A7100000AFFEE780B400AFFEE780B400AFFEE715
:10A7200080B400AFFEE780B400AFFEE780B400AFB6
:10A73000FEE780B400AFFEE780B400AFFEE780B470
:10A7400000AFFEE780B400AFFEE780B400AFFEE7E5
:10A7500080B400AFFEE780B400AFFEE780B400AF86
:10A76000FEE780B400AFFEE780B400AFFEE780B440
:10A7700000AFFEE780B400AFFEE780B400AFFEE7B5
:10A7800080B400AFFEE780B400AFFEE780B400AF56
:10A79000FEE780B400AFFEE780B400AFFEE780B410
:10A7A00000AFFEE780B400AFFEE780B400AFFEE785
:10A7B00080B400AFFEE780B400AFFEE780B400AF26
:10A7C000FEE780B400AFFEE780B400AFFEE780B4E0
:10A7D00000AFFEE780B400AFFEE780B400AFFEE755
:10A7E00080B400AFFEE780B400AFFEE780B400AFF6
:10A7F000FEE780B400AFFEE780B400AFFEE780B4B0
:10A8000000AFFEE780B400AFFEE780B400AFFEE724
:10A8100080B400AFFEE780B400AFFEE780B400AFC5
:10A82000FEE780B400AFFEE780B400AFFEE780B47F
:10A8300000AFFEE780B400AFFEE780B400AFFEE7F4
:10A8400080B400AFFEE780B400AFFEE780B400AF95
:10A85000FEE780B400AFFEE780B400AFFEE780B44F
:10A8600000AFFEE780B400AFFEE780B400AFFEE7C4
:10A8700080B400AFFEE780B400AFFEE780B400AF65
:10A88000FEE780B400AFFEE780B400AFFEE780B41F
:10A8900000AFFEE780B400AFFEE780B400AFFEE794
:10A8A00080B400AFFEE780B400AFFEE780B400AF35
:10A8B000FEE780B400AFFEE780B400AFFEE780B4EF
:10A8C00000AFFEE780B400AFFEE780B400AFFEE764
:10A8D00080B400AFFEE780B400AFFEE780B400AF05
:10A8E000FEE780B400AFFEE780B400AFFEE780B4BF
:10A8F00000AFFEE780B400AFFEE780B400AFFEE734
:10A9000080B400AFFEE780B400AFFEE780B400AFD4
:10A91000FEE780B400AFFEE780B400AFFEE780B48E
:10A9200000AFFEE780B400AFFEE780B400AFFEE703
:10A9300080B400AFFEE780B400AFFEE780B400AFA4
:10A94000FEE780B400AFFEE780B400AFFEE780B45E
:10A9500000AFFEE780B400AFFEE780B400AFFEE7D3
:10A9600080B400AFFEE780B400AFFEE780B400AF74
:10A97000FEE780B400AFFEE780B400AFFEE780B42E
:10A9800000AFFEE780B400AFFEE780B400AFFEE7A3
:10A9900080B400AFFEE780B400AFFEE780B400AF44
:10A9A000FEE780B400AFFEE780B400AFFEE780B4FE
:10A9B00000AFFEE780B586B000AF00210420FFF7AE
:10A9C00055FE0420FFF736FE364B7B607B6883F331
:10A9D0000A8800BF344B354A9A60334BDB683B60D2
:10A9E0003B68DB431B0C1B043A6892B213432E4AAC
:10A9F00043F48043D3602E4BD3F8A8302C4A43F065
:10AA00000203C2F8A8302A4BD3F8A8303B603B6859
:10AA1000284B1B69274A43F0010313610AF034FBFA
:10AA2000254B7B611AE000233B610EE07B691A68CD
:10AA30003B699B001A447B6959683B699B000B4446
:10AA400012681A603B6901333B617B699B689B0814
:10AA50003A699A42EAD37B690C337B617B69174A76
:10AA60009342E0D3164BFB6015E00023BB6009E086
:10AA7000FB681A68BB689B00134400221A60BB681D
:10AA80000133BB60FB685B689B08BA689A42EFD3EE
:10AA9000FB680833FB60FB680A4A9342E5D317F072
:10AAA00009FB00BF0028023000ED00E000A4030C09
:10AAB000000C025600040056C8AA030CECAA030CB2
:10AAC000ECAA030C04AB030C4001050CE0DD0230E2
:10AAD000680100000001050C003C0230400000004D
:10AAE000E000050C000802302000000060DF0230AA
:10AAF000F41F0000403C0230A0A1000020080230FA
:10AB0000E01B000001015F5F030100001F03000064
:10AB1000C7B1030C0020000000000000010000008D
:10AB20000100000000000000000000004882023028
:10AB30000000000070000000E8F8060C10000000A3
:10AB400080000000000700000100000001015F5FBD
:10AB5000050100001F030000AFE1030C800A0000A4
:10AB600000000000010000000100000000000000E3
:10AB700000000000C8A402300000000080000000B7
:10AB8000F4F8060C1000000020000000030700008D
:10AB90000100000001015F5F000100001F020000D2
:10ABA000852F050C000800000000000003000000D5
:10ABB000010000000000000000000000681A0230E0
:10ABC0000000000080000000700000004200000053
:10ABD0000CF9060C100000006000000001070000E6
:10ABE0000100000001015F5F010100001F03000080
:10ABF000FD02040C800600000000000000000000C0
:10AC0000010000000000000000000000D8B1023088
:10AC1000000000002CF9060C10000000700000007D
:10AC2000020700000100000000015F5F0401000056
:10AC30001F030000AD29040C000500000000000007
:10AC40000000000003000000000000000000000001
:10AC500058B802300000000054F9060C1000000043
:10AC600040000000000500000100000074F9060C1F
:10AC7000200000004100000000050000010000006D
:10AC80008CF9060C400000004200000000040000A7
:10AC90000100000000015F5F0F0100001F030000C2
:10ACA000912F040C002000000000000002000000B2
:10ACB00006000000000000000000000098BD023007
:10ACC000000000008000000040000000A8F9060C11
:10ACD00010000000A00000000005000001000000BE
:10ACE000B8F9060C20000000A100000000050000DB
:10ACF00001000000C8F9060C40000000A20000009E
:10AD00000005000001000000D8F9060C80000000DA
:10AD1000A30000000005000001000000E8F9060C97
:10AD200000010000A4000000000500000100000078
:10AD300000FA060C00020000A5000000000500005B
:10AD40000100000000015F5F00000000FE03000042
:10AD5000D5CC040C0004000000000000000000003E
:10AD600000000000000000000000000000E30230CE
:10AD70000000000001015F5F01000000FF03000010
:10AD8000F7CC040C000100000000000000000000EF
:10AD900000000000000000000000000000E702309A
:10ADA00000000000000000000000000000000000A3
:10ADB0000000000000000000000000000000000093
:10ADC00080B483B000AF7860064B03F580531A4619
:10ADD0007B68C2F80434002318460C37BD4680BC9B
:10ADE000704700BF403C023080B483B000AF786051
:10ADF000064B03F58053D3F804247B681A600023C4
:10AE000018460C37BD4680BC704700BF403C02303E
:10AE100080B483B000AF786039607B68033323F07F
:10AE200003037B60134B03F58053D3F80034C3F561
:10AE3000A0537A689A4202D96FF08C0315E00D4B4B
:10AE400003F58053D3F800340A4A1A443B681A6069
:10AE5000084B03F58053D3F800247B681344054A5C
:10AE600002F58052C2F80034002318460C37BD4664
:10AE700080BC7047403C023080B584B000AF104BBE
:10AE800003F580531A460023C2F804340C4B03F533
:10AE90008053D3F800340A4AFA600022BA607B601B
:10AEA0007A68B968F86817F0B6FE054B03F5805369
:10AEB0001A460023C2F8003400BF1037BD4680BDDB
:10AEC000403C023090B59BB000AFF860B9607A604A
:10AED0000023BB6504237B6604233B6607F138032C
:10AEE00020220021184617F096FE07F118032022B1
:10AEF0000021184617F08FFE00237B6102E07B6E75
:10AF0000013B7B667B6E002B07D07B6E5A1EFB6875
:10AF1000043253F82230002BF1D07B6E002B02D18B
:10AF20006FF08303ABE0BB68BB632C23FB6301239F
:10AF3000FB6533E0FB68FA6D043253F8223007F109
:10AF4000140211461846FFF763FFB865BB6D002B6E
:10AF500003D0FFF791FFBB6D91E0FB6858687969FA
:10AF6000FB68FA6D043253F822300A46F96D17F087
:10AF700093FB7A69FB6DDB0068333B4443F8302C6C
:10AF8000FB68FA6D043253F82220FB6DDB00683356
:10AF90003B4443F82C2CFB6D0133FB65FA6D7B6E53
:10AFA0009A42C7D302E03B6E013B3B663B6E002BEF
:10AFB00007D03B6E5A1EFB68083253F82230002B34
:10AFC000F1D00023FB6527E0FB68FA6D083253F8E7
:10AFD000223007F1140211461846FFF719FFB86531
:10AFE000BB6D002B03D0FFF747FFBB6D47E07A69CD
:10AFF000FB6DDB0068333B4443F8502CFB68FA6D73
:10B00000083253F82220FB6DDB0068333B4443F8E1
:10B010004C2CFB6D0133FB65FA6D3B6E9A42D3D32A
:10B02000FB689B681846FFF7CBFE174A7B6852F80F
:10B03000234007F1180207F138003B6E796EA047F4
:10B04000B8650023FB6513E0FB685868FB6DDB0007
:10B0500068333B4453F8502CFB6DDB0068333B44B2
:10B0600053F84C3CF96D17F01BFBFB6D0133FB658E
:10B07000FA6D3B6E9A42E7D3FFF7FEFEBB6D1846B2
:10B080006C37BD4690BD00BFC44B040C80B586B084
:10B0900000AFF860B9607A60FB6858682C23BA6822
:10B0A000002117F0F9FA78617B692C2B02D06FF040
:10B0B00083030FE0BB681B68402B06D97B684FF009
:10B0C000FF321A606FF0830304E0BB681A687B6884
:10B0D0001A60002318461837BD4680BD80B59AB067
:10B0E00000AF00233B6600237B664FF0FF33FB621B
:10B0F0003B462C220021184617F08DFD4FF00041F1
:10B100004FF0FF3017F0C0FA38663B6E03F01003C3
:10B11000002B2CD007F130031946102017F0B8FA95
:10B120000346002B00D0FEE73B6B002B1ED107F13E
:10B130002C02394607F130031846FFF7A7FF78665F
:10B14000FB6AB3F1FF3F08D0FA6A394607F13003D2
:10B150001846FFF7B7FE786602E06FF083037B6660
:10B160007B6B796E184617F09EFA01E0FEE7FEE76A
:10B17000C4E7000080B500AF4FF40251074819F052
:10B1800015FC32F031F90346002B02D06FF0920328
:10B1900002E01DF04FFD0346184680BD48500230C6
:10B1A00080B500AF00F070F80346184680BD80B54A
:10B1B00082B000AF78607868FFF716FE0346184645
:10B1C0000837BD4680BD80B582B000AFFFF7E8FF0D
:10B1D00078607B68002B01D07B680AE0FFF7CAFF2C
:10B1E00078607B68002B01D07B6802E0FFF776FF78
:10B1F0007B6818460837BD4680BD000080B588B022
:10B2000000AF78607B684FF40C7202FB03F31033DD
:10B210001C4A1344BB611B4A7B684FF40C7101FB51
:10B2200003F3134408331B68013B032B18D801A216
:10B2300052F823F045B2030C4BB2030C53B2030C8B
:10B2400059B2030C5023FB610DE04FF4C073FB6156
:10B2500009E0E823FB6106E04FF40873FB6102E0BC
:10B260000023FB6100BFBB697B6100233B61FB697D
:10B27000FB60FA683969786917F0CDFC00BF2037A8
:10B28000BD4680BDC870023080B584B000AF084BA9
:10B29000FB600023BB604FF48C537B607A68B96815
:10B2A000F86817F0B8FC002318461037BD4680BD7B
:10B2B000C870023080B588B000AFF860B9607A60BD
:10B2C0000023FB6100237B6107F114031846FFF79D
:10B2D0006EFFB861BB69002B01D0BB6951E0BB6850
:10B2E0001B68002B02D06FF088034AE07B68002BBC
:10B2F00002D16FF0860344E07B6800221A600023CD
:10B30000FB6139E0214AFB694FF40C7101FB03F347
:10B3100013441B68002B2CD11C4AFB694FF40C71A1
:10B3200001FB03F3134401221A607A691749FB6990
:10B330004FF40C7000FB03F30B4404331A60134A00
:10B34000FB694FF40C7101FB03F313440833FA68F3
:10B350001A60FB695A1CBB681A60FB694FF40C72D7
:10B3600002FB03F31033094A1A447B681A60002376
:10B3700007E0FB690133FB61FB69072BC2D96FF062
:10B38000840318462037BD4680BD00BFC870023018
:10B3900080B586B000AF78607B681B687B61002356
:10B3A000FB6007F10C031846FFF701FF38613B69AA
:10B3B000002B01D03B6949E07B69002B44D07B69BD
:10B3C000082B41D87B69013B224A4FF40C7101FBE9
:10B3D00003F313441B68012B36D17B69013B1D4AE3
:10B3E0004FF40C7101FB03F3134404331A68FB6838
:10B3F0009A4229D17B69013B1846FFF7FFFE7B6922
:10B40000013B144A4FF40C7101FB03F31344002277
:10B410001A607B69013B0F4A4FF40C7101FB03F387
:10B420001344083300221A607B69013B094A4FF438
:10B430000C7101FB03F31344043300221A607B6890
:10B4400000221A60002301E06FF0860318461837C7
:10B45000BD4680BDC870023080B586B000AFF860D0
:10B46000B9607A6000233B6107F110031846FFF7CB
:10B470009EFE78617B69002B01D07B6939E0BB6857
:10B48000002B34D0BB68082B31D8BB68013B1B4A6A
:10B490004FF40C7101FB03F313441B68012B26D1FD
:10B4A000BB68013B154A4FF40C7101FB03F31344D5
:10B4B00008331B68FA689A4219D1BB68013B0F4AEE
:10B4C0004FF40C7101FB03F3134404331A683B6916
:10B4D0009A420CD1BB68013B4FF40C7202FB03F3A0
:10B4E0001033064A1A447B681A60002301E06FF0AB
:10B4F000880318461837BD4680BD00BFC8700230AB
:10B5000080B58CB000AFF860B9607A603B60002312
:10B51000FB6200237B61BB68002B08D0BB68012B5A
:10B5200005D83B68002B02D03B68022B02D96FF094
:10B53000800338E0FB685B682C2B03D17B685B6879
:10B54000042B02D06FF080032DE0FB681B68BB6208
:10B55000BB6A1B697B627B681B683B627B68083344
:10B560001B68FB617B6808335B68BB61BB6A1A6957
:10B570003B6A1A6007F114031A46796A0120FFF743
:10B580006BFFF862FB6A002B01D0FB6A0BE03B6AA1
:10B590007A6A1A6078697B6808330433BA69F96992
:10B5A0001DF0F0F8034618463037BD4680BD80B523
:10B5B0008CB000AFF860B9607A603B600023FB623A
:10B5C00000237B61BB68002B08D0BB68022B05D829
:10B5D0003B68002B02D03B68012B02D96FF080033F
:10B5E00033E0FB685B682C2B03D17B685B68042B22
:10B5F00002D06FF0800328E0FB681B68BB62BB6A67
:10B600001B697B627B681B683B62FB6808331B68B5
:10B61000FB61FB6808335B68BB61BB6A1A693B6A04
:10B620001A6007F114031A46796A0120FFF714FF24
:10B63000F862FB6A002B01D0FB6A06E07B69BA69FD
:10B64000F96918461CF0A0F8034618463037BD4685
:10B6500080BD80B58EB000AFF860B9607A603B60A5
:10B6600000237B6300233B62BB68002B08D0BB68D0
:10B67000012B05D83B68002B02D03B68012B02D977
:10B680006FF0800348E07B685B68042B03D1FB68A4
:10B690005B682C2B02D06FF080033DE0FB681B68D9
:10B6A0003B633B6B1B69FB617B681B68FB623B6B0D
:10B6B0009B68BB623B6BDB687B6207F1200207F192
:10B6C0001C0319460120FFF7F5FD78637B6B002B07
:10B6D00001D07B6B20E0FA69FB6A1A6007F1140362
:10B6E0001946B86A01F05AF878637B6B002B0CD1CD
:10B6F000386A7B6A07F1140206CA1CF029F87863DD
:10B700007B6B002B03D17B6B06E000BF00E000BF2A
:10B71000F86AFFF73DFE7B6B18463837BD4680BDA3
:10B7200080B58EB000AFF860B9607A603B600023EE
:10B730007B6300233B62BB68002B08D0BB68012BF6
:10B7400005D83B68002B02D03B68012B02D96FF073
:10B75000800348E07B685B68042B03D1FB685B686F
:10B760002C2B02D06FF080033DE0FB681B683B632D
:10B770003B6B1B69FB617B681B68FB623B6B9B68D7
:10B78000BB623B6BDB687B6207F1200207F11C03A5
:10B7900019460120FFF78EFD78637B6B002B01D0EB
:10B7A0007B6B20E0FA69FB6A1A6007F11403194603
:10B7B000B86A00F0F3FF78637B6B002B0CD1386A1A
:10B7C0007B6A07F1140206CA1BF0D0FF78637B6B1B
:10B7D000002B03D17B6B06E000BF00E000BFF86ADE
:10B7E000FFF7D6FD7B6B18463837BD4680BD80B568
:10B7F00090B002AFF860B9607A603B6000237B6371
:10B8000000237B61BB68002B08D0BB68022B05D8E6
:10B810003B68002B02D03B68022B02D96FF08003FB
:10B8200045E0FB685B682C2B03D17B685B68042BCD
:10B8300002D06FF080033AE0FB681B683B633B6B10
:10B840001B69FB627B681B68BB62FB6808331B6873
:10B850007B62FB6808335B683B627B6808331B686C
:10B86000FB617B6808335B68BB613B6B1A69BB6A31
:10B870001A607B68083300225A6007F114031A46E5
:10B88000F96A0120FFF7E8FD78637B6B002B01D09C
:10B890007B6B0CE078697B68083304330193BB69E8
:10B8A0000093FB693A6A796A1BF09EFF03461846CB
:10B8B0003837BD4680BD80B58CB000AFF860B96048
:10B8C0007A603B600023FB6200237B61BB68002B36
:10B8D00008D0BB68012B05D83B68002B02D03B6821
:10B8E000022B02D96FF0800340E0FB685B682C2BD1
:10B8F00003D17B685B68042B02D06FF0800335E0D6
:10B90000FB681B68BB62BB6A1B697B627B681B6848
:10B910003B627B6808331B68FB617B6808335B68AC
:10B92000BB61BB6A1A693B6A1A607B6808330022F4
:10B930005A6007F114031A46796A0120FFF78CFD5B
:10B94000F862FB6A002B01D0FB6A0FE078697B6824
:10B9500008330433BA69F9691BF06EFFF862FB6AB9
:10B96000002B02D1386AFFF713FDFB6A1846303707
:10B97000BD4680BD80B58AB000AFF860B9607A601E
:10B980003B6000237B6200237B61BB68002B08D0F7
:10B99000BB68012B05D83B68002B02D03B68012B0C
:10B9A00002D96FF0800335E0FB685B682C2B03D174
:10B9B0007B685B68042B02D06FF080032AE0FB6891
:10B9C0001B683B623B6A1B69FB617B681B68BB6150
:10B9D0003B6A1A69BB691A6007F114031A46F969D0
:10B9E0000120FFF739FD78627B6A002B01D000232C
:10B9F00010E07B6918461BF04DFF78627B6A002BD4
:10BA000004D0B869FFF7C4FC7B6A03E0B869FFF7AC
:10BA1000BFFC034618462837BD4680BD80B592B0AE
:10BA200004AFF860B9607A603B6000237B63BB6859
:10BA3000002B08D0BB68022B05D83B68002B02D036
:10BA40003B68012B02D96FF080033AE0FB685B682A
:10BA50002C2B02D06FF0800333E0FB681B683B6344
:10BA60003B6B9B68FB623B6BDB68BB62FB6808332C
:10BA70001B687B62FB6808335B683B627B681B6802
:10BA8000FB617B685B68BB6107F110031946F86ACC
:10BA900000F084FE78637B6B002B01D07B6B10E0A1
:10BAA0007B6804330393BB690293FB6901933B6A90
:10BAB00000937B6ABA6A07F1100103C91CF0B0FE5B
:10BAC000034618463837BD4680BD80B592B004AFF6
:10BAD000F860B9607A603B6000237B63BB68002B31
:10BAE00008D0BB68022B05D83B68002B02D03B680E
:10BAF000012B02D96FF080033AE0FB685B682C2BC6
:10BB000002D06FF0800333E0FB681B683B633B6B44
:10BB10009B68FB623B6BDB68BB62FB6808331B689E
:10BB20007B62FB6808335B683B627B681B68FB6178
:10BB30007B685B68BB6107F110031946F86A00F087
:10BB40002DFE78637B6B002B01D07B6B10E07B6854
:10BB500004330393BB690293FB6901933B6A00932F
:10BB60007B6ABA6A07F1100103C91BF0A3FE034602
:10BB700018463837BD4680BD80B58AB000AFF86042
:10BB8000B9607A603B6000237B6200237B61BB6805
:10BB9000002B08D0BB68012B05D83B68002B02D0D6
:10BBA0003B68012B02D96FF0800338E07B685B684B
:10BBB000042B03D1FB685B682C2B02D06FF0800351
:10BBC0002DE0FB681B683B623B6A1B693B617B683D
:10BBD0001B68FB613B6ADB68BB613B6A1A69FB69F6
:10BBE0001A6007F1140207F1100319460320FFF74A
:10BBF00061FB78627B6A002B01D07B6A0FE03A69B7
:10BC0000FB691A607B69B96918461AF0A5FF78626A
:10BC10007B6A002B02D0F869FFF7BAFB7B6A1846F3
:10BC20002837BD4680BD80B58CB000AFF860B960E4
:10BC30007A603B600023FB6200237B61BB68002BC2
:10BC400008D0BB68022B05D83B68002B02D03B68AC
:10BC5000012B02D96FF0800333E0FB685B682C2B6B
:10BC600003D17B685B68042B02D06FF0800328E06F
:10BC7000FB681B68BB62BB6A1B697B627B681B68D5
:10BC80003B62FB6808331B68FB61FB6808335B6839
:10BC9000BB61BB6A1A693B6A1A6007F114031A4652
:10BCA000796A0320FFF7D8FBF862FB6A002B01D00A
:10BCB000FB6A06E07B69BA69F96918461AF072FFF7
:10BCC000034618463037BD4680BD80B58CB000AF06
:10BCD000F860B9607A603B600023FB6200237B61FF
:10BCE000BB68002B08D0BB68012B05D83B68002B34
:10BCF00002D03B68022B02D96FF0800340E0FB6862
:10BD00005B682C2B03D17B685B68042B02D06FF03F
:10BD1000800335E0FB681B68BB62BB6A1B697B6202
:10BD20007B681B683B627B6808331B68FB617B6830
:10BD300008335B68BB61BB6A1A693B6A1A607B683F
:10BD4000083300225A6007F114031A46796A032067
:10BD5000FFF782FBF862FB6A002B01D0FB6A0FE061
:10BD600078697B6808330433BA69F9691AF036FFD9
:10BD7000F862FB6A002B02D1386AFFF709FBFB6A05
:10BD800018463037BD4680BD80B58CB000AFF86036
:10BD9000B9607A603B600023FB6200237B61BB6873
:10BDA000002B08D0BB68022B05D83B68002B02D0C3
:10BDB0003B68012B02D96FF080033AE0FB685B68B7
:10BDC0002C2B03D17B685B68042B02D06FF08003BF
:10BDD0002FE0FB681B68BB62BB6A1B697B627B68E8
:10BDE0001B683B62FB6808331B68FB61FB68083318
:10BDF0005B68BB61BB6A1A693B6A1A6007F114038E
:10BE00001A46796A0320FFF727FBF862FB6A002BCA
:10BE100001D0FB6A0DE07B69BA69F96918461AF02E
:10BE2000F1FEF862FB6A002B02D1386AFFF7B0FA24
:10BE3000FB6A18463037BD4680BD80B58AB000AF7A
:10BE4000F860B9607A603B6000237B6200237B610D
:10BE5000BB68002B08D0BB68012B05D83B68002BC2
:10BE600002D03B68012B02D96FF0800335E0FB68FC
:10BE70005B682C2B03D17B685B68042B02D06FF0CE
:10BE800080032AE0FB681B683B623B6A1B69FB611D
:10BE90007B681B68BB613B6A1A69BB691A6007F162
:10BEA00014031A46F9690320FFF7D6FA78627B6A11
:10BEB000002B01D0002310E07B6918461AF040FEE9
:10BEC00078627B6A002B04D0B869FFF761FA7B6A5D
:10BED00003E0B869FFF75CFA034618462837BD4609
:10BEE00080BD80B58AB000AFF860B9607A603B6011
:10BEF00000237B6200237B6100233B61BB68002B36
:10BF000008D0BB68012B05D83B68002B02D03B68EA
:10BF1000012B02D96FF0800334E0FB685B682C2BA7
:10BF200003D17B685B68042B02D06FF0800329E0AB
:10BF3000FB681B683B623B6A1B69FB617B681B6893
:10BF4000BB6107F114031A46F9690320FFF784FA6D
:10BF500078627B6A002B01D07B6A13E007F1100343
:10BF60001A46B9690320FFF7A5F978627B6A002BAE
:10BF700001D07B6A06E07B693A69114618461AF0DF
:10BF8000E1FE034618462837BD4680BD80B58CB01B
:10BF900002AFF860B9607A603B60BB68002B05D0E7
:10BFA000BB68022B02D83B68012B02D96FF08003DB
:10BFB00029E0FB685B682C2B02D06FF0800322E045
:10BFC000FB681B687B627B6ADB683B62FB6808334B
:10BFD0001B68FB61FB6808335B68BB617B681B689F
:10BFE0007B617B685B683B617B6800225A607B6891
:10BFF000043301933B6900937B69BA69F969386A34
:10C000001AF058FE034618462837BD4680BD80B555
:10C010008CB002AFF860B9607A603B60BB68002BFF
:10C0200005D0BB68032B02D83B68002B02D06FF011
:10C03000800325E0FB685B682C2B02D06FF0800347
:10C040001EE0FB681B687B627B6ADB683B62FB6807
:10C0500008331B68FB61FB6808335B68BB61FB68E6
:10C0600010331B687B61FB6810335B683B613B6985
:10C0700000937B69BA69F969386A1AF02BFE0346A6
:10C0800018462837BD4680BD80B58EB000AFF86039
:10C09000B9607A603B6000237B6300233B62BB682E
:10C0A000002B08D0BB68012B05D83B68002B02D0C1
:10C0B0003B68012B02D96FF080034CE07B685B6822
:10C0C000042B03D1FB685B682C2B02D06FF080033C
:10C0D00041E0FB681B683B633B6B1B69FB617B6852
:10C0E0001B68FB623B6B9B68BB623B6BDB687B62E4
:10C0F0003B6B1A69FB6A1A6007F1200207F11C0307
:10C1000019460220FFF7D6F878637B6B002B01D02D
:10C110007B6B20E0FA69FB6A1A6007F11403194689
:10C12000B86A00F03BFB78637B6B002B0CD1386A5C
:10C130007B6A07F1140206CA1AF02EFE78637B6B45
:10C14000002B03D17B6B06E000BF00E000BFF86A64
:10C15000FFF71EF97B6B18463837BD4680BD80B5AA
:10C160008EB000AFF860B9607A603B6000237B63FB
:10C1700000233B62BB68002B08D0BB68012B05D8AD
:10C180003B68002B02D03B68012B02D96FF0800383
:10C190004CE07B685B68042B03D1FB685B682C2B4D
:10C1A00002D06FF0800341E0FB681B683B633B6B90
:10C1B0001B69FB617B681B68FB623B6B9B68BB6216
:10C1C0003B6BDB687B623B6B1A69FB6A1A6007F1A9
:10C1D000200207F11C0319460220FFF76BF8786371
:10C1E0007B6B002B01D07B6B20E0FA69FB6A1A6045
:10C1F00007F114031946B86A00F0D0FA78637B6B34
:10C20000002B0CD1386A7B6A07F1140206CA1AF0B7
:10C21000D1FD78637B6B002B03D17B6B06E000BF05
:10C2200000E000BFF86AFFF7B3F87B6B18463837B9
:10C23000BD4680BD80B58CB000AFF860B9607A6053
:10C240003B600023FB6200237B61BB68002B08D0AE
:10C25000BB68022B05D83B68002B02D03B68012B42
:10C2600002D96FF0800333E0FB685B682C2B03D1AD
:10C270007B685B68042B02D06FF0800328E0FB68CA
:10C280001B68BB62BB6A1B697B627B681B683B6285
:10C29000FB6808331B68FB61FB6808335B68BB61A4
:10C2A000BB6A1A693B6A1A6007F114031A46796A75
:10C2B0000220FFF7D1F8F862FB6A002B01D0FB6A7D
:10C2C00006E07B69BA69F96918461AF081FD0346F0
:10C2D00018463037BD4680BD80B58CB000AFF860E1
:10C2E000B9607A603B600023FB6200237B61BB681E
:10C2F000002B08D0BB68012B05D83B68002B02D06F
:10C300003B68022B02D96FF0800340E0FB685B685A
:10C310002C2B03D17B685B68042B02D06FF0800369
:10C3200035E0FB681B68BB62BB6A1B697B627B688C
:10C330001B683B627B6808331B68FB617B680833C2
:10C340005B68BB61BB6A1A693B6A1A607B68083329
:10C3500000225A6007F114031A46796A0220FFF797
:10C360007BF8F862FB6A002B01D0FB6A0FE078696A
:10C370007B6808330433BA69F9691AF049FDF86239
:10C38000FB6A002B02D1386AFFF702F8FB6A1846F5
:10C390003037BD4680BD80B58CB000AFF860B96065
:10C3A0007A603B600023FB6200237B61BB68002B4B
:10C3B00008D0BB68022B05D83B68002B02D03B6835
:10C3C000012B02D96FF080033AE0FB685B682C2BED
:10C3D00003D17B685B68042B02D06FF080032FE0F1
:10C3E000FB681B68BB62BB6A1B697B627B681B685E
:10C3F0003B62FB6808331B68FB61FB6808335B68C2
:10C40000BB61BB6A1A693B6A1A6007F114031A46DA
:10C41000796A0220FFF720F8F862FB6A002B01D04E
:10C42000FB6A0DE07B69BA69F96918461AF00EFEDD
:10C43000F862FB6A002B02D1386AFEF7A9FFFB6A9B
:10C4400018463037BD4680BD80B58AB000AFF86071
:10C45000B9607A603B6000237B6200237B61BB682C
:10C46000002B08D0BB68012B05D83B68002B02D0FD
:10C470003B68012B02D96FF0800335E0FB685B68F5
:10C480002C2B03D17B685B68042B02D06FF08003F8
:10C490002AE0FB681B683B623B6A1B69FB617B68A7
:10C4A0001B68BB613B6A1A69BB691A6007F1140318
:10C4B0001A46F9690220FEF7CFFF78627B6A002BEB
:10C4C00001D0002310E07B6918461AF053FC786213
:10C4D0007B6A002B04D0B869FEF75AFF7B6A03E041
:10C4E000B869FEF755FF034618462837BD4680BD9C
:10C4F00080B592B004AFF860B9607A603B60002309
:10C500007B63BB68002B08D0BB68022B05D83B6857
:10C51000002B02D03B68012B02D96FF080033AE078
:10C52000FB685B682C2B02D06FF0800333E0FB6864
:10C530001B683B633B6B9B68FB623B6BDB68BB62CE
:10C54000FB6808331B687B62FB6808335B683B62EF
:10C550007B681B68FB617B685B68BB6107F110034C
:10C560001946F86A00F01AF978637B6B002B01D04A
:10C570007B6B10E07B6804330393BB690293FB6918
:10C5800001933B6A00937B6ABA6A07F1100103C901
:10C590001AF09AFD034618463837BD4680BD80B56F
:10C5A00092B004AFF860B9607A603B6000237B63AF
:10C5B000BB68002B05D0BB68032B02D83B68002B5F
:10C5C00002D06FF0800339E0FB685B682C2B02D04F
:10C5D0006FF0800332E0FB681B683B633B6B9B683A
:10C5E000FB623B6BDB68BB62FB6808331B687B62EA
:10C5F000FB6808335B683B62FB6810331B68FB61B8
:10C60000FB6810335B68BB6107F110031946F86AD9
:10C6100000F0C4F878637B6B002B01D07B6B0DE0DE
:10C62000BB690293FB6901933B6A00937B6ABA6A18
:10C6300007F1100103C91AF05DFD034618463837AB
:10C64000BD4680BD80B487B000AFF860B9607A6045
:10C65000FB687A681A60FB68BA685A60F8681C3729
:10C66000BD4680BC7047B0B58EB000AF786007F1B2
:10C67000100328220021184616F0CDFA7B681D46CB
:10C6800007F110040FCC0FC50FCC0FC594E80300C1
:10C6900085E8030078683837BD46B0BDB0B590B0C6
:10C6A00000AF78633963FA627B6B002B02D0FB6AC0
:10C6B000002B02D16FF080032CE0FC6A3B46184649
:10C6C000FFF7D1FF25463C460FCC0FC50FCC0FC559
:10C6D00094E8030085E80300FB6AFB637B6B1A8820
:10C6E000FB6B1A807B6B5A68FB6B5A607B6BDA685A
:10C6F000FB6B1A617B6B1A69FB6B5A617B6B5A8807
:10C70000FB6B5A807B6B9A68FB6B9A60FB6B3A6B96
:10C71000DA60002318464037BD46B0BDB0B491B0D2
:10C7200000AF786039603B68002B02D07B68002B3B
:10C7300002D16FF080032CE007F12C0300221A6075
:10C740005A609A60DA601A613B681D4607F12C0452
:10C750000FCC0FC523682B607B6807F10C041D46C6
:10C760000FCD0FC495E80F0084E80F00BA893B682D
:10C770001A803A693B685A60FA693B68DA603A6A3B
:10C780003B681A61FA893B685A807A693B689A600B
:10C79000002318464437BD46B0BC704790B587B0FB
:10C7A00000AFF860B96000233B6107F11003184641
:10C7B000FEF7FDFC78617B69002B01D07B6913E0FB
:10C7C000BB68002B02D16FF080030DE03969BC68B3
:10C7D0003B46FA681846FFF735FF22463B4693E88A
:10C7E000030082E80300002318461C37BD4690BDB5
:10C7F00080B59CB008AFF860B9607A603B600023F8
:10C80000FB64BB68002B05D0BB68032B02D83B68D8
:10C81000012B02D96FF0800355E0FB685B682C2B7D
:10C8200002D06FF080034EE0FB681B68BB64BB6CFA
:10C8300018337B64BB6C9B683B64BB6CDB68FB633D
:10C840007B6CBB637B6C1B697B63FB6808331B6879
:10C850003B63FB6808335B68FB627B681B68BB62F9
:10C860007B685B687B62FB6810331B683B62FB681C
:10C8700010335B68FB617B6800225A6007F1140388
:10C880001946386CFFF78AFFF864FB6C002B01D067
:10C89000FB6C18E07B68043307937B6A0693BB6AE2
:10C8A0000593FB6A04933B6B0393FB6902933B6A1A
:10C8B00001937B6B0093BB6BFA6B07F1140103C907
:10C8C0001BF096F8034618465037BD4680BD80B52C
:10C8D0009CB008AFF860B9607A603B600023FB64ED
:10C8E000BB68002B05D0BB68032B02D83B68012B2B
:10C8F00002D96FF0800355E0FB685B682C2B02D0F7
:10C900006FF080034EE0FB681B68BB64BB6C1833A0
:10C910007B64BB6C9B683B64BB6CDB68FB637B6CC0
:10C92000BB637B6C1B697B63FB6808331B683B63E1
:10C93000FB6808335B68FB627B681B68BB627B68D3
:10C940005B687B62FB6810331B683B62FB681033DB
:10C950005B68FB617B6800225A6007F1140319468B
:10C96000386CFFF71BFFF864FB6C002B01D0FB6CED
:10C9700018E07B68043307937B6A0693BB6A0593D0
:10C98000FB6A04933B6B0393FB6902933B6A01933D
:10C990007B6B0093BB6BFA6B07F1140103C91BF0AF
:10C9A000E5F8034618465037BD4680BD80B485B0D3
:10C9B00000AFF860B9607A603B606FF0850318469D
:10C9C0001437BD4680BC704780B485B000AFF860B6
:10C9D000B9607A603B606FF0850318461437BD4636
:10C9E00080BC704780B485B000AFF860B9607A60F1
:10C9F0003B606FF0850318461437BD4680BC704716
:10CA000080B485B000AFF860B9607A603B606FF0C9
:10CA1000850318461437BD4680BC704780B485B086
:10CA200000AFF860B9607A603B606FF0850318462C
:10CA30001437BD4680BC704780B485B000AFF86045
:10CA4000B9607A603B606FF0850318461437BD46C5
:10CA500080BC704780B485B000AFF860B9607A6080
:10CA60003B606FF0850318461437BD4680BC7047A5
:10CA700080B485B000AFF860B9607A603B606FF059
:10CA8000850318461437BD4680BC704780B485B016
:10CA900000AFF860B9607A603B606FF085031846BC
:10CAA0001437BD4680BC704780B485B000AFF860D5
:10CAB000B9607A603B606FF0850318461437BD4655
:10CAC00080BC704780B483B000AF78607B681B88FF
:10CAD00018460C37BD4680BC704780B483B000AFA9
:10CAE00078607B685B8818460C37BD4680BC704711
:10CAF00080B592B004AFF860B9607A603B60BB6803
:10CB0000002B05D0BB68022B02D83B68012B02D951
:10CB10006FF080033AE0FB685B682C2B02D06FF06B
:10CB2000800333E0FB681B687B637B6B9B683B6324
:10CB30007B6BDB68FB62FB6808331B68BB62FB68CE
:10CB400008335B687B627B681B683B627B685B6861
:10CB5000FB6107F110031946386BFFF71FFEB86140
:10CB6000BB69002B01D0BB6910E07B6804330393E1
:10CB7000FB6902933B6A01937B6A0093BB6AFA6A82
:10CB800007F1100103C91AF035FB03461846383780
:10CB9000BD4680BD80B592B004AFF860B9607A60E0
:10CBA0003B60BB68002B05D0BB68032B02D83B68F9
:10CBB000002B02D06FF0800339E0FB685B682C2B00
:10CBC00002D06FF0800332E0FB681B687B637B6BF5
:10CBD0009B683B637B6BDB68FB62FB6808331B680D
:10CBE000BB62FB6808335B687B62FB6810331B68C1
:10CBF0003B62FB6810335B68FB6107F11003194669
:10CC0000386BFFF7CBFDB861BB69002B01D0BB6966
:10CC10000DE0FB6902933B6A01937B6A0093BB6A58
:10CC2000FA6A07F1100103C91AF044FB03461846DB
:10CC30003837BD4680BD80B592B004AFF860B960AA
:10CC40007A603B60BB68002B05D0BB68022B02D822
:10CC50003B68012B02D96FF080033AE0FB685B6808
:10CC60002C2B02D06FF0800333E0FB681B687B63E2
:10CC70007B6B9B683B637B6BDB68FB62FB68083309
:10CC80001B68BB62FB6808335B687B627B681B6860
:10CC90003B627B685B68FB6107F110031946386BE8
:10CCA000FFF77CFDB861BB69002B01D0BB6910E0C8
:10CCB0007B6804330393FB6902933B6A01937B6AAD
:10CCC0000093BB6AFA6A07F1100103C91AF05CFB12
:10CCD000034618463837BD4680BD80B592B004AFD4
:10CCE000F860B9607A603B60BB68002B05D0BB6818
:10CCF000032B02D83B68002B02D06FF0800339E091
:10CD0000FB685B682C2B02D06FF0800332E0FB687D
:10CD10001B687B637B6B9B683B637B6BDB68FB62A5
:10CD2000FB6808331B68BB62FB6808335B687B6287
:10CD3000FB6810331B683B62FB6810335B68FB6168
:10CD400007F110031946386BFFF728FDB861BB697E
:10CD5000002B01D0BB690DE0FB6902933B6A019394
:10CD60007B6A0093BB6AFA6A07F1100103C91AF0E3
:10CD700077FB034618463837BD4680BD80B5A4B062
:10CD800006AFF860B9607A603B60BB68002B05D0E5
:10CD9000BB68032B02D83B68012B02D96FF08003DC
:10CDA00082E0FB685B682C2B02D06FF080037BE095
:10CDB000FB681B687B677B6F9B683B677B6FDB68EF
:10CDC000FB66FB6808331B68BB66FB6808335B685F
:10CDD0007B66FB6810331B683B66FB6810335B683F
:10CDE000FB657B681B68BB657B685B687B6507F1DF
:10CDF000200328220021184615F00DFF07F110032B
:10CE00001946386FFFF7CAFC38653B6D002B01D01F
:10CE10003B6D49E007F120031A4607F1100393E840
:10CE2000030019F04BFB38653B6D002B01D03B6DC7
:10CE30003AE007F120031846FFF74FFEF86407F1C8
:10CE400020031846FFF73EFE0346A7F84A3007F1D5
:10CE5000200318461BF046FFB7F84A3023F440532E
:10CE600044F20102934203D1FB6C0733DB0800E07C
:10CE700000237A6D934202D96FF0890314E07B6836
:10CE8000043305937B6D0493BB6D0393FB6D029399
:10CE90003B6E01937B6E0093BB6EFA6E07F110013F
:10CEA00003C91AF0F3FA034618467837BD4680BD29
:10CEB00080B596B006AFF860B9607A603B60BB6839
:10CEC000002B05D0BB68032B02D83B68012B02D98D
:10CED0006FF0800346E0FB685B682C2B02D06FF09C
:10CEE00080033FE0FB681B68FB63FB6B9B68BB63D5
:10CEF000FB6BDB687B63FB6808331B683B63FB6889
:10CF000008335B68FB62FB6810331B68BB62FB681D
:10CF100010335B687B627B681B683B627B685B6885
:10CF2000FB6107F110031946B86BFFF737FCB861D6
:10CF3000BB69002B01D0BB6914E07B680433059307
:10CF4000FB6904933B6A03937B6A0293BB6A019378
:10CF5000FB6A00933B6B7A6B07F1100103C91AF06F
:10CF60004BFB034618464037BD4680BD80B483B0B6
:10CF700000AF78607B685B8818460C37BD4680BC84
:10CF80007047000080B483B000AF786039607B6880
:10CF9000034A1A60002318460C37BD4680BC704710
:10CFA000000F00B080B58EB000AFF8607A603B60D3
:10CFB0000B467B817B8940F20122934202D06FF0C5
:10CFC00086033CE007F114031846FEF7F0F8786397
:10CFD0007B6B002B01D07B6B31E0FB6810333B6334
:10CFE0003B6804331946012017F012FD02463B6BE3
:10CFF0005A613B6B5B69002B02D16FF08C031EE022
:10D000003B6B5B693B6207F11403FB610423BB616B
:10D01000BA69F969386A15F09FFD3B6B5B690433A7
:10D02000FB627B68BB623B687B627A6AB96AF86ABA
:10D0300015F092FD3B681A1D3B6B9A610023184660
:10D040003837BD4680BD80B58AB002AFF860B960A0
:10D050007A60F868FFF78AFF03460733DB08FB6155
:10D06000BB681033BB61FB69402B02D96FF08C03A6
:10D070001CE0BB695869BB699969BB695C33FA6993
:10D0800001920093002300220AF026FF78617B6959
:10D09000002B02D06FF0920308E0BB6903F15C0142
:10D0A0007B68FA69F86819F0A5FB03461846203733
:10D0B000BD4680BD80B58AB000AF78607B68103314
:10D0C0007B627B6A5B69002B11D07B6A5A697B6A41
:10D0D0009B693A620022FA61BB61BA69F969386AF0
:10D0E00015F099FD7B6A5B69184617F097FC7B6821
:10D0F0007B6100233B614FF40873FB60FA68396978
:10D10000786915F088FD002318462837BD4680BD94
:10D1100080B58AB000AFF860B9607A603B600023E8
:10D120007B6200237B61BB68002B08D0BB68012BAE
:10D1300005D83B68002B02D03B68012B02D96FF069
:10D14000800341E07B685B68042B03D1FB685B686C
:10D150002C2B02D06FF0800336E0FB681B683B622B
:10D160003B6A1B693B617B681B68FB613B6ADB6850
:10D17000BB6107F1140207F1100319460420FEF702
:10D1800099F878627B6A002B01D07B6A1CE03A69CF
:10D19000FB691A60BB690E4A934206D17B69B96983
:10D1A0001846FFF7EFFE786205E07B69B96918461B
:10D1B0001BF0F2F978627B6A002B04D0F869FEF765
:10D1C000E7F87B6A00E07B6A18462837BD4680BDD9
:10D1D000000F00B080B58AB000AFF860B9607A6027
:10D1E0003B60BB68002B08D0BB68012B05D83B68AF
:10D1F000002B02D03B68012B02D96FF080032BE09B
:10D20000FB685B682C2B03D17B685B68042B02D026
:10D210006FF0800320E0FB681B687B627B6A1B6900
:10D220003B627B681B68FB6100237B6107F1140391
:10D230001A46396A0420FEF70FF9B861BB69002B62
:10D2400004D0FB6900221A60BB6905E07B69F969BB
:10D2500018461AF0EDFE034618462837BD4680BD35
:10D2600080B58AB000AFF860B9607A603B60BB6897
:10D27000002B05D0BB68012B02D83B68002B02D0E5
:10D280006FF0800324E0FB685B682C2B02D06FF00A
:10D2900080031DE0FB681B687B627B6A1B693B6245
:10D2A0007B6A5B69FB6100237B6107F114031A460B
:10D2B000396A0420FEF7D0F8B861BB69002B01D0B1
:10D2C000BB6905E07B69F96918461AF0BBFE0346A5
:10D2D00018462837BD4680BD80B58CB000AFF860D9
:10D2E000B9607A603B60BB68002B05D0BB68022B3D
:10D2F00002D83B68002B02D06FF080033AE0FB6855
:10D300005B682C2B02D06FF0800333E0FB681B6856
:10D31000FB62FB6A1B69BB62FB6A9B88FB84FB6840
:10D3200008331B683B62FB6808335B68FB610023C2
:10D330007B6107F114031A46B96A0420FEF78CF8E2
:10D34000B861BB69002B01D0BB6913E07B691B6826
:10D350000A4A934207D17869F98CFB693A6AFFF768
:10D3600021FE034606E07869F98CFB693A6A1BF0F6
:10D3700033F9034618463037BD4680BD000F00B074
:10D3800080B58AB000AFF860B9607A603B60BB6876
:10D39000002B05D0BB68012B02D83B68012B02D9BA
:10D3A0006FF0800328E0FB685B682C2B02D06FF0E5
:10D3B000800321E0FB681B687B627B6A1B693B6220
:10D3C0007B681B68FB617B685B68BB6100233B611A
:10D3D00007F110031A46396A0420FEF73DF8786118
:10D3E0007B69002B01D07B6906E03B69BA69F9696A
:10D3F00018461AF037FE034618462837BD4680BD4A
:10D4000080B58CB000AFF860B9607A603B60BB68F3
:10D41000002B05D0BB68012B02D83B68002B02D043
:10D420006FF0800335E0FB685B682C2B02D06FF057
:10D4300080032EE0FB681B68FB62FB6A1B69BB6212
:10D44000FB6A9B687B62FB6A9B887B840023BB61D1
:10D4500007F118031A46B96A0420FDF7FDFFF861C9
:10D46000FB69002B01D0FB6913E007F1100319469B
:10D47000786AFFF793F9F861FB69002B01D0FB692B
:10D4800007E0B869798C07F110030CCB1BF0B0F8FA
:10D49000034618463037BD4680BD000080B59AB0BF
:10D4A00000AFF860B9607A603B60BB68012B08D9B7
:10D4B000BB68022B05D83B68002B02D03B68012BD0
:10D4C00002D96FF0800366E0FB685B682C2B08D103
:10D4D000FB6808335B68142B03D17B685B68042B03
:10D4E00002D06FF0800356E0FB681B683B663B6E22
:10D4F0001B69FB65FB6808331B68BB6500233B6544
:10D500007B681B687B6507F12803282200211846E9
:10D5100015F081FB07F150031A46F96D0420FDF761
:10D520009BFF78667B6E002B01D07B6E33E007F1AA
:10D530001C031846FDF73BFE78667B6E002B01D07E
:10D540007B6E28E0FB6907F128021946B86DFFF7EA
:10D55000A5F878667B6E002B01D07B6E1BE03B6DDF
:10D560001B680F4A934209D1396D07F1140207F184
:10D5700028031846FFF767FD786608E0396D07F164
:10D58000140207F1280318461AF02AFF78667A6910
:10D590007B6D1A607B6E18466837BD4680BD00BF44
:10D5A000000F00B080B58AB000AFF860B9607A6053
:10D5B0003B60BB68002B08D0BB68012B05D83B68DB
:10D5C000002B02D03B68012B02D96FF0800346E0AC
:10D5D000FB685B682C2B03D17B685B68042B02D053
:10D5E0006FF080033BE0FB681B683B623B6A1B6992
:10D5F000FB617B681B68BB6100237B613B6A1A6926
:10D60000BB691A6007F114031A46F9690420FDF793
:10D6100023FF78627B6A002B01D000231FE0BB69E7
:10D62000FA691A607B691B680F4A934205D17B69CE
:10D630001846FFF73FFD786204E07B6918461AF050
:10D6400053FB78627B6A002B04D0B869FDF7A0FE1B
:10D650007B6A04E0B869FDF79BFE78627B6A184636
:10D660002837BD4680BD00BF000F00B080B590B028
:10D6700002AFF860B9607A603B60BB68002B05D0F0
:10D68000BB68022B02D83B68002B02D06FF08003EE
:10D6900041E0FB685B682C2B02D06FF080033AE01E
:10D6A000FB681B687B637B6B1B693B637B6B9B68C5
:10D6B000FB62FB6808331B68BB62FB6808335B686E
:10D6C0007B620023BB617B6B9B887B8407F1180323
:10D6D0001A46396B0420FDF7BFFEF861FB69002B89
:10D6E00001D0FB6917E007F110031946F86AFFF74C
:10D6F00055F8F861FB69002B01D0FB690BE0B869B4
:10D70000798C7B6A0193BB6A009307F110030CCB01
:10D710001AF0ACFF034618463837BD4680BD80B5C9
:10D7200092B004AFF860B9607A603B60BB68002BD0
:10D7300005D0BB68022B02D83B68012B02D96FF0E1
:10D7400080033AE0FB685B682C2B02D06FF080030B
:10D7500033E0FB681B687B637B681B683B637B680B
:10D760005B68FB627B6BDB68BB627B6B9B687B628D
:10D77000FB6808331B683B62FB6808335B68FB612E
:10D7800007F110031946786AFFF708F8B861BB691A
:10D79000002B01D0BB6910E07B6804330393FB6A64
:10D7A00002933B6B0193FB6900933B6A07F1100204
:10D7B00006CAB86A1BF0F4F8034618463837BD4667
:10D7C00080BD80B487B000AFF860B9607A60FB6854
:10D7D0007A681A60FB68BA685A60F8681C37BD46F8
:10D7E00080BC704780B598B000AFF860B9607A60CF
:10D7F0003B60BB68012B08D9BB68032B05D83B688D
:10D80000002B02D03B68012B02D96FF080034CE063
:10D81000FB685B682C2B08D1FB6808335B68142B12
:10D8200003D17B685B68042B02D06FF080033CE07F
:10D83000FB6808331B68FB65FB6810331B68BB651E
:10D84000FB6810335B687B657B681B683B6507F191
:10D85000240328220021184615F0DDF900233B613E
:10D8600007F110031846FDF7A2FCF864FB6C002BCF
:10D8700001D0FB6C19E03B6907F124021946F86DF1
:10D88000FEF70CFFF864FB6C002B01D0FB6C0CE086
:10D8900007F1140307F124007A6DB96D18F0AAFF9F
:10D8A000F8647A693B6D1A60FB6C18466037BD46B8
:10D8B00080BD80B58CB000AF78613961FA60BB6023
:10D8C0003B69012B08D93B69022B05D8BB68002BAB
:10D8D00002D0BB68012B02D96FF0800344E07B6962
:10D8E0005B682C2B08D17B6908335B68042B03D160
:10D8F000FB685B68042B02D06FF0800334E07B6927
:10D9000008331B681B68FB62FB681B68BB62002353
:10D91000BB6107F118031846FDF749FC78627B6A82
:10D92000002B01D07B6A1FE0B9693B46FA6A1846B2
:10D93000FFF747FF07F11C033A4692E8030083E82C
:10D94000030007F11C031A4607F11C0393E80300C8
:10D950001CF01AFE78627B6A002B01D07B6A03E020
:10D96000FA69BB6A1A607B6A18463037BD4680BDCB
:10D9700080B58AB000AFF860B9607A603B60BB6880
:10D98000002B05D0BB68012B02D83B68002B02D0CE
:10D990006FF0800327E0FB685B682C2B02D06FF0F0
:10D9A000800320E0FB681B687B627B6A9B683B62AC
:10D9B00000233B6107F110031846FDF7F8FBF861FF
:10D9C000FB69002B01D0FB690DE0396907F11403F5
:10D9D0003A6A1846FFF7F5FE07F1140393E80300CF
:10D9E0001CF0FAFD034618462837BD4680BD80B5B9
:10D9F0008AB000AFF860B9607A603B60BB68002B0A
:10DA000005D0BB68012B02D83B68002B02D06FF019
:10DA1000800327E0FB685B682C2B02D06FF080034B
:10DA200020E0FB681B687B627B6A9B683B6200238B
:10DA30003B6107F110031846FDF7B9FBF861FB697C
:10DA4000002B01D0FB690DE0396907F114033A6A34
:10DA50001846FFF7B6FE07F1140393E8030018F029
:10DA6000E7FC034618462837BD4680BD80B598B010
:10DA700000AFF860B9607A603B60BB68002B08D0EB
:10DA8000BB68012B05D83B68002B02D03B68012BFB
:10DA900002D96FF0800343E0FB685B682C2B03D155
:10DAA0007B685B68142B02D06FF0800338E0FB6862
:10DAB0001B68BB65BB6D9B687B657B681B683B65B2
:10DAC00007F1280328220021184615F0A4F80023A6
:10DAD0007B6107F114031846FDF769FBF865FB6DE0
:10DAE000002B01D0FB6D1BE0796907F118037A6DFB
:10DAF0001846FFF766FE07F128031A4607F11803D8
:10DB000093E8030018F0DAFCF865FB6D002B06D1F2
:10DB100007F12803396D1846FEF700FEF865FB6D26
:10DB200018466037BD4680BD80B594B000AFF86040
:10DB3000B9607A603B60BB68002B08D0BB68012BE2
:10DB400005D83B68002B02D03B68012B02D96FF04F
:10DB5000800338E0FB685B682C2B03D17B685B6833
:10DB6000142B02D06FF080032DE07B681B68FB64F0
:10DB700007F1200328220021184615F04CF807F180
:10DB800014031846FDF713FBB864BB6C002B01D0DF
:10DB9000BB6C18E07B6907F120021946F86CFEF7B0
:10DBA0007DFDB864BB6C002B01D0BB6C0BE007F1B2
:10DBB000200318461BF096F807F12003F96C18466D
:10DBC000FEF7ACFD034618465037BD4680BD80B514
:10DBD0008EB002AFF860B9607A603B60BB68002B22
:10DBE00005D0BB68012B02D83B68012B02D96FF02E
:10DBF000800331E0FB685B682C2B02D06FF0800360
:10DC00002AE0FB681B68FB62FB6A9B68BB627B685F
:10DC10001B687B627B685B683B6200233B6107F1AA
:10DC200010031846FDF7C3FAF861FB69002B01D019
:10DC3000FB6911E0396907F11403BA6A1846FFF766
:10DC4000C0FD7B68043300933B6A7A6A07F11401D4
:10DC500003C918F0F5FC034618463037BD4680BDB1
:10DC600080B58EB002AFF860B9607A603B60BB6887
:10DC7000002B05D0BB68012B02D83B68012B02D9D1
:10DC80006FF0800331E0FB685B682C2B02D06FF0F3
:10DC900080032AE0FB681B68FB62FB6A9B68BB622F
:10DCA0007B681B687B627B685B683B6200233B612F
:10DCB00007F110031846FDF77AFAF861FB69002BAB
:10DCC00001D0FB6911E0396907F11403BA6A1846FB
:10DCD000FFF777FD7B68043300933B6A7A6A07F1AC
:10DCE000140103C918F040FD034618463037BD46FD
:10DCF00080BD80B58AB000AFF860B9607A603B60E3
:10DD0000BB68002B05D0BB68012B02D83B68002BF9
:10DD100002D06FF0800327E0FB685B682C2B02D0F9
:10DD20006FF0800320E0FB681B687B627B6A9B6866
:10DD30003B6200233B6107F110031846FDF737FAF9
:10DD4000F861FB69002B01D0FB690DE0396907F12F
:10DD500014033A6A1846FFF734FD07F1140393E8F9
:10DD600003001CF05DFC034618462837BD4680BD05
:10DD700080B59AB000AFF860B9607A603B60BB686C
:10DD8000012B08D9BB68022B05D83B68002B02D0B9
:10DD90003B68012B02D96FF0800357E0FB685B689A
:10DDA0002C2B08D17B685B68042B04D1FB680833FB
:10DDB0005B68142B02D06FF0800347E0FB681B68A0
:10DDC0007B667B6E9B683B667B681B68FB65FB68BC
:10DDD00008331B68BB6507F12C0328220021184675
:10DDE00014F019FF00233B6207F120031846FDF7EA
:10DDF000DEF978657B6D002B01D07B6D26E03B6AF8
:10DE000007F12C021946B86DFEF748FC78657B6D6A
:10DE1000002B01D07B6D19E0396A07F110033A6ECF
:10DE20001846FFF7CEFC07F1180307F12C0207F1A3
:10DE3000100103C918F096FD78657B6D002B01D0A9
:10DE40007B6D03E0BA69FB6D1A607B6D184668371D
:10DE5000BD4680BD80B596B000AFF860B9607A600D
:10DE60003B60BB68012B08D9BB68022B05D83B6817
:10DE7000002B02D03B68012B02D96FF0800349E0F0
:10DE8000FB685B682C2B08D1FB6808335B68142B9C
:10DE900003D17B685B68042B02D06FF0800339E00C
:10DEA0007B681B687B65FB6808331B683B6507F173
:10DEB000240328220021184614F0ADFE0023BB6184
:10DEC00007F118031846FDF772F9F864FB6C002B94
:10DED00001D0FB6C1EE0BB6907F124021946386DC6
:10DEE000FEF7DCFBF864FB6C002B01D0FB6C11E04F
:10DEF00007F1100207F12403114618461AF0CAFD73
:10DF0000F864FB6C002B01D0FB6C03E03A697B6D7D
:10DF10001A60FB6C18465837BD4680BD80B586B088
:10DF200000AFF860B9607A603B60BB68002B05D039
:10DF3000BB68012B02D83B68012B02D96FF080032C
:10DF400011E0FB685B682C2B02D06FF080030AE0C5
:10DF50007B681B687B617B685B683B6139697869BA
:10DF60001AF0EAFB034618461837BD4680BD00008C
:10DF700080B5ADF52E7D00AF07F52E73A3F52D739B
:10DF800018600023C7F8B4320023C7F8B03207F591
:10DF90002E73A3F52D731B681B69C7F8AC3207F508
:10DFA0002E73A3F52D731B681B6AC7F8A83207F5FB
:10DFB0002E73A3F52A7307F51A721A6007F52E73EC
:10DFC000A3F52A73D7F8AC225A6007F52E73A3F590
:10DFD0002C7307F118021A6007F52E73A3F52C7342
:10DFE0004FF414725A60D7F8AC32402B02D96FF05C
:10DFF00086034EE0D7F8A832B3F5147F06D207F5B2
:10E000002E73A3F52C73D7F8A8225A6007F52E7348
:10E01000A3F52D731B689B68204A136007F52E73C8
:10E02000A3F52D731B68586807F51A72D7F8AC3240
:10E03000002114F031FBC7F8B002D7F8B022D7F8AE
:10E04000AC329A4202D06FF0830322E007F108025B
:10E0500007F110000123012100F079FDC7F8B40297
:10E06000D7F8B432002B12D107F52E73A3F52D7318
:10E070001B68586807F52E73A3F52C731A6807F50B
:10E080002E73A3F52C735B68002114F009FBD7F8FD
:10E09000B432184607F52E77BD4680BD48A202303F
:10E0A00080B58AB000AF786000237B6200233B62BA
:10E0B00007F11C033B617B681B697B6107F1180357
:10E0C000BB607B681B6AFB607B681B69042B03D108
:10E0D0007B681B6A042B02D06FF0860329E07B6803
:10E0E0009B68164A13607B6858687B681B6907F158
:10E0F0001C02002114F0D0FA38627B681B693A6A6E
:10E100009A4202D06FF0860313E007F1080207F18C
:10E1100010000123012100F05CFD78627B6A002B76
:10E1200006D17B685868BA68FB68002114F0B8FA19
:10E130007B6A18462837BD4680BD00BF48A2023022
:10E1400080B400AFFEE780B590B000AF786007F113
:10E150000C031946786814F09BFAF863FB6840F2E8
:10E16000E932934204D040F2EA3293420CD017E0F5
:10E1700007F10C031846FFF7FBFEF8633B69F96BE8
:10E18000184614F090FA0EE007F10C031846FFF75A
:10E1900087FFF8633B69F96B184614F084FA02E0D4
:10E1A000FFF7CEFF00BF00BF4037BD4680BD80B542
:10E1B00082B000AF00F084F878607B68002B01D05B
:10E1C000FFF7BEFF4FF000414FF0FF3014F05CFA54
:10E1D00038603B6803F01003002B03D01020FFF7DA
:10E1E000B2FFEFE7FFF7ACFFECE780B582B000AF1E
:10E1F0007860042178682FF094FC00BF0837BD4692
:10E2000080BD80B584B000AFF860C7E90023D7E9CE
:10E210000023F8682FF00DFCF868FFF7E6FF00BF59
:10E220001037BD4680BD80B582B000AF7860002257
:10E23000042178682FF0A4FC00BF0837BD4680BDDC
:10E2400080B584B000AFF8603B1D83E806003B1D3D
:10E250000CCB0921F8682FF01CFC00BF1037BD461D
:10E2600080BD000080B483B000AF78607B68052B70
:10E270001FD801A252F823F091E2030C95E2030C9F
:10E280009BE2030CA1E2030CA7E2030CADE2030C3A
:10E29000002310E06FF08F030DE06FF089030AE0B8
:10E2A0006FF0830307E06FF0860304E06FF08303F1
:10E2B00001E06FF0830318460C37BD4680BC704701
:10E2C00080B582B000AF4FF400720649012001F022
:10E2D000CBFE78607868FFF7C5FF0346184608371D
:10E2E000BD4680BD4CA2023080B483B000AF03466F
:10E2F000FB71FB79002B02D0012B02D003E000233D
:10E3000002E0022300E0052318460C37BD4680BC1E
:10E31000704780B58CB000AFF860B9607A60BB68B8
:10E32000042B20D0BB68042B29D8BB68012B03D059
:10E33000BB68022B06D022E0FB681B781A467B687C
:10E340001A601FE007F11603FB62FB68BB62022341
:10E350007B627A6AB96AF86A14F0FEFBFB8A1A4695
:10E360007B681A600EE07B683B62FB68FB610423FC
:10E37000BB61BA69F969386A14F0EEFB02E04FF04C
:10E38000FF3300E0002318463037BD4680BD000053
:10E3900080B58EB000AFB9607A603B600346FB7316
:10E3A0002C4B1B8842F21602934202D04FF0FF33EF
:10E3B0004CE0284B5B881A46264B13443B633B6872
:10E3C0001B68002B02D1244B7B633AE03B681B683F
:10E3D00007F11402FA62BB6204237B627A6AB96AAB
:10E3E000F86A14F0B9FB3B681A68FB8A04331344DB
:10E3F0007B6326E007F114033B627B6BFB61042324
:10E40000BB61BA69F969386A14F0A6FBBB8A9B1133
:10E4100003F03F02FB7B9A420ED1BB8ADBB203F0D2
:10E420003F03DAB2BB681A703B687A6B1A60FA8AEB
:10E430007B681A80012309E0FB8A04337A6B13445A
:10E440007B637A6B3B6B9A42D4D3002318463837F0
:10E45000BD4680BD4CA2023050A2023080B588B0CB
:10E4600000AF0346B9607A60FB730023FB777B68DB
:10E4700000221A6007F11701F87F7B68BA68FFF77E
:10E4800087FFB861BB69012B07D1FB7DFA7B9A42FC
:10E4900005D0BB69012BEDD002E000BF00E000BF5A
:10E4A000BB6918462037BD4680BD000080B58EB0E0
:10E4B00000AF786000237B63002387F833300023AC
:10E4C000FB6200237B610023BB61786800F0D3FE10
:10E4D000F862002387F8333032E000233B6207F113
:10E4E000200307F1260207F11F0197F83300FFF719
:10E4F0004FFFB862BB6AB3F1FF3F01D1032333E0A2
:10E50000BB6A012B17D17B6B01337B637B6B012BC8
:10E5100005D1174A4FF0FF33F86AFFF772FE3B6AE6
:10E5200004337B61FB8CBB6107F1140393E80600A5
:10E53000F86AFFF785FE97F83330013387F83330F8
:10E5400097F83330062BC8D97B6B002B03D0F86AC1
:10E55000FFF769FE07E04FF001024FF000030549A5
:10E56000786800F092FE002318463837BD4680BD1B
:10E5700002DBFEFF01DBFEFF80B590B000AF7860EC
:10E5800007F1100300221A605A600023BB600023C9
:10E59000FB6307F1080207F10E0319460020FFF79D
:10E5A0005DFFF863FB6B012B05D1BB6804333B6156
:10E5B000FB897B6110E007F118031946202009F060
:10E5C00025FCB863BB6B002B01D003230CE007F1E3
:10E5D00018033B6120237B6107F110031A460449AD
:10E5E000786800F06BFE002318464037BD4680BDBA
:10E5F00004DBFEFF80B586B000AF786007F10C0346
:10E60000184600F093FC78617B69002B01D07B6990
:10E6100007E007F10C031A460449786800F04EFE43
:10E62000002318461837BD4680BD00BFFFDAFEFF45
:10E6300080B58EB000AF786020233B6107F11402F3
:10E6400007F110031146184609F0F5FB78637B6B60
:10E65000002B01D003230CE007F11403BB603B69DE
:10E66000FB6007F108031A460449786800F026FEAB
:10E67000002318463837BD4680BD00BF05DBFEFFCE
:10E68000B0B584B000AF786007F10803184601F018
:10E69000D9FCF860FB68002B01D0FB680AE0BB687E
:10E6A000DA171C46154622462B460449786800F0C6
:10E6B000ECFD002318461037BD46B0BD07DBFEFF5A
:10E6C000B0B58AB000AF786007F1100300221A607D
:10E6D0005A600023BB6000233B6207F1080207F188
:10E6E0000E0319460220FFF7B9FE38623B6A012B80
:10E6F00014D1BB6804333B61FB897B613B69796959
:10E7000007F118021846FFF704FEF861FB69002BB9
:10E7100001D0052310E0BB697B6202E009F008FB31
:10E7200078627B6A00221C46154622462B46044925
:10E73000786800F0AAFD002318462837BD46B0BD12
:10E7400006DBFEFF80B582B000AF786039603A68C2
:10E750000449786800F0B2FD002318460837BD462A
:10E7600080BD00BF00DBFEFF80B58EB000AF7860DB
:10E770002023BB6007F10C0207F10803114618467D
:10E7800009F0EEFA78637B6B002B01D005230CE0D7
:10E7900007F10C03FB62BB683B6307F12C031A46CD
:10E7A0000449786800F0A4FD002318463837BD46B8
:10E7B00080BD00BFFEDAFEFF80B58EB000AF78608E
:10E7C0002023BB6007F10C0207F10803114618462D
:10E7D00009F0F1FA78637B6B002B01D005230CE084
:10E7E00007F10C03FB62BB683B6307F12C031A467D
:10E7F0000449786800F07CFD002318463837BD4690
:10E8000080BD00BF08DBFEFF80B58EB000AF786032
:10E810001223BB6107F1100300221A605A60002323
:10E82000BB6000237B6307F1080207F10E03194662
:10E830000120FFF713FE78637B6B012B05D1BB68CA
:10E8400004333B61FB897B6112E007F11C0207F195
:10E8500018031146184609F014FB38633B6B002B74
:10E8600001D003230CE007F11C033B61BB697B6112
:10E8700007F110031A460449786800F039FD0023B7
:10E8800018463837BD4680BD03DBFEFF80B483B039
:10E8900000AF78607B68402B08D07B68402B07D89E
:10E8A0007B68202B02D07B68302B01D1002300E055
:10E8B000042318460C37BD4680BC704780B58CB029
:10E8C00000AFF860B9607A600123FB6204237B62C9
:10E8D000FB685B68402B1ED1FB681B68002B1AD0BD
:10E8E000FB681A68FB685B6813443B62FB681A6844
:10E8F0007B6A1344BB6209E0BB6A5A1CBA621B788C
:10E90000002B03D00023FB6200BF06E0BA6A3B6A1B
:10E910009A42F1D301E00023FB62FB6A002B12D084
:10E92000FB681B68BA68FA61BB617B6A7B617A69C4
:10E93000B969F86914F010F9BB681B6803F00702A5
:10E940007B681A6005E0BB6800221A607B680022C1
:10E950001A6000BF3037BD4680BD80B5C4B002AF7D
:10E96000F86007F58473A3F58073196007F5847365
:10E97000A3F582731A600023C7F8043100237B617A
:10E9800000233B6100F0D8F9C7F80401D7F804313F
:10E99000002B40F0B38007F1140207F11003194671
:10E9A000F868FFF78BFF39697A6907F1180007F5F6
:10E9B0008473A3F580731B6800936FF0060300F067
:10E9C000A3FB034687F8033197F80331002B07D0E8
:10E9D00097F803311846FFF787FCC7F80401A4E055
:10E9E00007F11803F9681846FFF7ACFEC7F80401F1
:10E9F000D7F80431002B40F083803B6903F080435B
:10EA0000002B62D107F118031846FFF7B5FDC7F8D0
:10EA10000401D7F80431002B74D107F1180318460C
:10EA2000FFF7E8FDC7F80401D7F80431002B6BD1DC
:10EA300007F118031846FFF7FBFDC7F80401D7F8E4
:10EA40000431002B62D107F118031846FFF718FEB6
:10EA5000C7F80401D7F80431002B59D107F1180386
:10EA60001846FFF72DFEC7F80401D7F80431002B34
:10EA700050D107F118031846FFF718FDC7F8040135
:10EA8000D7F80431002B47D107F118031846FFF7D8
:10EA90006BFEC7F80401D7F80431002B3ED107F113
:10EAA00018031846FFF788FEC7F80401D7F80431A9
:10EAB000002B35D107F118031846FFF7A5FEC7F85C
:10EAC0000401D7F80431002B2CD107F58473A3F58A
:10EAD000827307F118021968104600F08CFB034698
:10EAE00087F8033197F80331002B1DD097F80331D5
:10EAF0001846FFF7F9FBC7F8040116E000BF14E061
:10EB000000BF12E000BF10E000BF0EE000BF0CE04D
:10EB100000BF0AE000BF08E000BF06E000BF04E05D
:10EB200000BF02E000BF00E000BFD7F80431002BB7
:10EB300004D100F07DF9C7F8040101E000F078F994
:10EB4000D7F80431184607F58477BD4680BD80B5F7
:10EB50008CB000AFF860B9607A603B600023FB6264
:10EB6000FB681B687B62FB685B68BB627B681B6839
:10EB7000FB617B685B683B62BB6A1846FFF786FEF9
:10EB8000F862FB6A002B19D13B6A002B02D10423E7
:10EB9000FB6216E007F1140207F11C0107F12403E0
:10EBA0001846FFF7DAFEF862FB6A002B08D17A6993
:10EBB0007B681A60BA697B685A6002E000BF00E0B7
:10EBC00000BFF86AFFF74EFB034618463037BD46D4
:10EBD00080BD80B58EB000AFF860B9607A603B60F0
:10EBE00000237B63FB681B681B683B637B681B68B7
:10EBF000FB6200237B623B6BBB620023FB616FF017
:10EC000000433B627B685B68032B02D804237B6371
:10EC10001AE0386BFFF73AFE78637B6B002B10D15C
:10EC200007F1140207F11C0107F124031846FFF74E
:10EC300094FE78637B6B002B05D1BA69FB6A1A607E
:10EC400002E000BF00E000BF786BFFF70BFB03465C
:10EC500018463837BD4680BD80B483B000AF00236E
:10EC60007B607B6818460C37BD4680BC7047B0B4EB
:10EC700089B000AF786007F10C0300221A605A6077
:10EC80009A60DA601A617B681D4607F10C040FCCAC
:10EC90000FC523682B6078682437BD46B0BC704729
:10ECA00080B483B000AF78607B681B6803F4805346
:10ECB000002B05D07B681B6843F480627B681A6078
:10ECC0007B681B6803F40053002B05D07B681B682E
:10ECD00043F400627B681A6000BF0C37BD4680BCFD
:10ECE000704780B582B000AF786039603B46184607
:10ECF000FFF7D6FF3A687B68DA6000BF0837BD4689
:10ED000080BD80B483B000AF786039607B683A68BA
:10ED10001A6100BF0C37BD4680BC704780B483B019
:10ED200000AF78600B467B807B687A881A8000BFD2
:10ED30000C37BD4680BC704780B5A8B000AF07F166
:10ED40007C0300221A605A609A60DA601A615A6184
:10ED50000023BB613B1D1846FFF789FF2F4B1B6843
:10ED6000002B01D0052354E007F1970307F17C0243
:10ED700007F11C00602109F0C5F8C7F89C00D7F81E
:10ED80009C30002B02D1FB6F002B01D1052340E00A
:10ED90003B1D4FF480511846FFF7A3FF3B1D204950
:10EDA0001846FFF7AEFF97F897301BB243F4E243E3
:10EDB0001BB29AB23B1D11461846FFF7AFFFF96F21
:10EDC000D7F8802007F11803381D2DF0A3FEC7F8EF
:10EDD0009800D7F89830002B01D0052319E0BB69C3
:10EDE0000E4A13600F4B1B68002B11D1B8690D4BF5
:10EDF00041220D492DF018FFC7F89800D7F8983038
:10EE0000002B01D0052304E097F89720074B1A70D8
:10EE100000231846A037BD4680BD00BF50A4023075
:10EE20000906000698A4023054A402309CA40230C3
:10EE300080B582B000AF0C4B1B68002B01D10523BD
:10EE40000EE0094B1B6818462DF09AFE78607B682F
:10EE5000002B01D0052303E0034B00221A6000239E
:10EE600018460837BD4680BD50A4023080B483B038
:10EE700000AF7860074B1B68002B01D1052304E02D
:10EE8000044B1A687B681A60002318460C37BD468D
:10EE900080BC704750A4023080B582B000AFFFF74D
:10EEA000DBFE03463B601B4B1B68002B01D1032399
:10EEB0002CE03B46184918462DF0E8FE78607B6848
:10EEC000002B01D0032321E0124B1A683B46134963
:10EED00018462DF00BFF78607B68002B01D00323D0
:10EEE00014E00F4938460F4B20222DF033FF786095
:10EEF0007B68002B01D0032308E00B4B01221A7022
:10EF0000084B1B680133074A136000231846083773
:10EF1000BD4680BD98A402300900000254A402300E
:10EF2000A1A40230C4A40230A0A4023080B582B0F3
:10EF300000AF78600D4B1B68002B06D1FFF7ACFFCC
:10EF40000346002B01D003230CE07B68002B01D18A
:10EF5000052307E07B68064A1A60044B1A687B6841
:10EF60005A60002318460837BD4680BDC4A402304D
:10EF7000A0A4023080B584B000AFF860C7E90023D8
:10EF8000D7E90023F8682EF054FDD7E90623F86886
:10EF90002EF04FFD00BF1037BD4680BD80B584B058
:10EFA00000AFF8603B1D83E806003B1D0CCB03213E
:10EFB000F8682EF06EFD00BF1037BD4680BD80B5ED
:10EFC00084B000AFF860C7E90023D7E90023F868F0
:10EFD0002EF02FFD07F1180393E80600F868FFF7FD
:10EFE000DDFF00BF1037BD4680BD80B584B000AFE7
:10EFF000F8603B1D83E806003B1D0CCB0221F8683E
:10F000002EF047FD00BF1037BD4680BD80B584B0EF
:10F0100000AFF860C7E90023D7E90023F8682EF0B5
:10F0200008FD07F1180393E80600F868FFF7DDFF15
:10F0300000BF1037BD4680BD80B582B000AF78609C
:10F04000052178682EF06DFD00BF0837BD4680BDF4
:10F0500080B582B000AF78600022052178682EF07C
:10F060008FFD00BF0837BD4680BD80B584B000AFBE
:10F07000F860B9607A6048220021F86813F0CBFD8F
:10F08000FB687A681A62FB68BA689A6300BF103737
:10F09000BD4680BD82B090B482B000AF786007F109
:10F0A000100181E80C007B683C3307F1200292E8F4
:10F0B000030083E803007B6803F1280407F11003D1
:10F0C0000FCB84E80F0000BF0837BD4690BC02B0EC
:10F0D000704780B483B000AF0346FB71FB79192BF6
:10F0E0000AD0192B0ADC002B02D0032B02D005E03A
:10F0F000002304E0042302E0012300E00323184678
:10F100000C37BD4680BC7047B0B596B004AFF86010
:10F11000B9607A603B60002387F8473000233B6486
:10F120000023FB6100233B62FB68BA68C3F89820A8
:10F13000FB687A68C3F89C20BB68002B03DA3B6C41
:10F1400043F001033B64FB68A0333A68396C18460E
:10F15000FFF78BFF07F124031846FFF787FEF863DC
:10F16000FB6B002B01D00E2341E0022387F82830EF
:10F170007B6A00221C461546C7E90C45FB6803F173
:10F18000A00402AA07F11C0393E8030082E803002D
:10F190006A4607F1300393E8030082E8030007F1B1
:10F1A00028030CCB2046FFF775FFF868BB6D93E88A
:10F1B00006002EF07FFBFB68A033FA681146184664
:10F1C00000F0A1FA034687F83B3097F83B30002B5C
:10F1D00007D097F83B301846FFF77BFF034687F8C8
:10F1E0004730FB681846FFF727FF97F84730184667
:10F1F0004837BD46B0BD80B586B000AF7860396095
:10F200000023FB757B681846FFF722FF7B68A0335D
:10F210007A681146184600F0F3FA0346BB75BB7DC9
:10F22000002B06D0BB7D1846FFF753FF0346FB7546
:10F230001CE07B6807F10C02114618462EF019FD00
:10F2400003467B757B7D012B02D10123FB750DE00D
:10F250007B7D002B02D00223FB7507E03B681A463A
:10F2600007F10C0393E8030082E80300FB7D1846D6
:10F270001837BD4680BD80B483B000AF78607B682E
:10F2800018460C37BD4680BC7047B0B586B002AF9B
:10F29000F860B960C7E90023F968BB68DA171C4653
:10F2A0001546D7E90023CDE9002322462B46084620
:10F2B000FFF760FE00BF1037BD46B0BDF0B587B0A8
:10F2C00002AFF860B9607A60FE68BB68DA171C4666
:10F2D00015467A686B4692E8030083E803002246ED
:10F2E0002B463046FFF792FE00BF1437BD46F0BDF7
:10F2F000F0B587B002AFF860B9607A60FE68BB68AD
:10F30000DA171C4615467A686B4692E8030083E8D4
:10F31000030022462B463046FFF751FE00BF14374C
:10F32000BD46F0BD80B483B000AF3B4683E8030028
:10F330003B68002B0CBF01230023DBB218460C37BF
:10F34000BD4680BC704780B483B000AF3B4683E8C5
:10F3500003007B68002B0CBF01230023DBB218469F
:10F360000C37BD4680BC704780B582B000AF3B46CD
:10F3700083E803003B4693E80300FFF7E4FF0346FE
:10F38000002B07D13B4693E80300FFF7CBFF034672
:10F39000002B01D0012300E0002318460837BD46AA
:10F3A00080BD80B483B000AF78607B689B7B1846DB
:10F3B0000C37BD4680BC704780B483B000AF786026
:10F3C0007B681B68002B0CBF01230023DBB21846AF
:10F3D0000C37BD4680BC704780B584B000AFF86084
:10F3E000C7E90023D7E90023F8682EF022FBD7E90C
:10F3F0000623F8682EF01DFB00BF1037BD4680BD08
:10F4000080B584B000AFF8603B1D83E806003B1D6B
:10F410000CCB0221F8682EF03CFB00BF1037BD4634
:10F4200080BD80B584B000AFF860C7E90023D7E99C
:10F430000023F8682EF0FDFA07F1180393E80600A0
:10F44000F868FFF7DDFF00BF1037BD4680BD80B50F
:10F4500082B000AF7860042178682EF062FB00BFB4
:10F460000837BD4680BD80B582B000AF786000220D
:10F47000042178682EF084FB00BF0837BD4680BDAC
:10F4800080B582B000AF7860052178682EF049FB26
:10F4900000BF0837BD4680BD80B582B000AF786040
:10F4A0000022052178682EF06BFB00BF0837BD46AF
:10F4B00080BD80B582B000AF7860022178682EF000
:10F4C00030FB00BF0837BD4680BD80B582B000AFBD
:10F4D000786039603A68022178682EF051FB00BFED
:10F4E0000837BD4680BD80B582B000AF78607B68CC
:10F4F0001846FFF761FF034618460837BD4680BD32
:10F5000080B582B000AF78607B681846FFF749FF8E
:10F510000346002B02D07B6801221A747B681B7C97
:10F5200018460837BD4680BD80B582B000AF3B4667
:10F5300083E803003B4693E80300FFF7F3FE03462E
:10F5400018460837BD4680BD80B582B000AF3B4647
:10F5500083E803003B4693E80300FFF705FF0346FB
:10F5600018460837BD4680BD82B080B588B000AF70
:10F57000F860381D80E80600FB62FB6813F1070F96
:10F580000DD0FB6813F1230F07D0FB6813F1240F94
:10F5900001D1842304E0002302E0602300E0402343
:10F5A0003B613B69002B02D10123FB772BE03B6BD6
:10F5B0003A699A4202D90623FB7724E00023BB6113
:10F5C00015E03A69BB69D31A7B61BB687A699A42D4
:10F5D00001D9BB687B61FA6ABB69134479687A69AF
:10F5E000184613F0B9FABB68BA691344BB61BA692B
:10F5F0003B699A42E5D3FA6A7B6B1A607B6B3A6986
:10F600005A600023FB77FB7F18462037BD46BDE8D4
:10F61000804002B07047B0B5B4B002AFF860B960D6
:10F62000394681E80C0007F124003B4693E80600C8
:10F630002EF040F907F124031846FFF721FFBB68BD
:10F64000DA171C46154607F12401CDE900454FF0B5
:10F6500001024FF000030846FFF7BEFE07F1240346
:10F660001846FFF719FF07F1BC0207F12403114602
:10F6700018462EF0FEFA034687F8C73097F8C730D1
:10F68000002B08D107F11C0307F1BC0292E803002C
:10F6900083E8030003E00023FB6100233B62FB6877
:10F6A0001A4607F11C0393E8030082E80300F86898
:10F6B000C837BD46B0BD80B586B002AFF860381D12
:10F6C00080E806003B603868FFF7DAFE3B1D93E8F0
:10F6D0000300FFF739FF0346002B0CD16A463B1DA0
:10F6E00093E8030082E803004FF004024FF00003A8
:10F6F0003868FFF796FE3868FFF7CEFE00231846FD
:10F700001037BD4680BD90B58DB000AFF860B960D0
:10F71000FB681B6A184600F0D5F9B862BB6A002B7B
:10F7200001D1012368E0FB689B6B03F00203002B0F
:10F7300006D14FF012024FF00003B8682EF0E1F945
:10F74000B868FFF784FEFB683B6218237B62FB68A6
:10F75000196AFC68384607F120030CCBFFF75BFF02
:10F7600004F118033A4692E8030083E80300FB68BB
:10F77000183393E80300FFF7D7FE0346002B03D0AE
:10F78000022387F82F3035E0FB68183393E8060032
:10F79000B868FFF735FEFA6807F118033C3292E8C3
:10F7A000030083E80300FB689B6B03F00103002B5D
:10F7B0000DD007F1180393E80300FFF7C5FE0346D9
:10F7C000002B04D007F11803184600F067FABB6855
:10F7D00007F1180206CAF868FFF76DFF034687F8BD
:10F7E0002F3097F82F30002B03D1B868FFF761FE58
:10F7F00000E000BF97F82F3018463437BD4690BD63
:10F80000B0B5AEB008AF7860396007F14403FB6370
:10F8100040233B6407F11C037B612023BB6107F19C
:10F820000C0319463868FFF750FE3868FFF768FE8A
:10F83000034687F8963097F89630012B03D11923A9
:10F8400087F8973094E097F89630002B03D0182370
:10F8500087F897308CE03868FFF745FE0346002BA9
:10F8600019D00023C7F884307B681C6A7B6807F1D5
:10F870008402043202926D4603F1300292E80300E2
:10F8800085E8030028330CCB204600F0F8FA034645
:10F8900087F897305EE07B681C6A7A6807F18C0312
:10F8A000049302AD07F1140393E8030085E8030015
:10F8B0006D4607F10C0393E8030085E8030000237D
:10F8C000183206CA204600F00FF9034687F8973031
:10F8D00097F89730002B48D17B689B6B03F00103AE
:10F8E000002B23D17B681C6A7B6807F18402069297
:10F8F00004AD07F13C0292E8030085E8030002AD85
:10F9000007F18C0292E8030085E803006D4603F1DD
:10F91000300292E8030085E8030028330CCB204630
:10F9200000F069FA034687F897300FE07B68186AA1
:10F9300007F1840301933B6C0093FB6B07F18C028E
:10F9400006CAFFF711FE034687F8973097F89730FD
:10F95000002B0CD107F1840393E806003868FFF709
:10F960004FFD3868FFF77FFD02E000BF00E000BFF9
:10F9700097F8973018469837BD46B0BD80B584B02B
:10F9800000AF7860396038682FF066FB01467B680D
:10F990003A681A607B68596078681037BD4680BD48
:10F9A00080B489B000AFF860381D80E806003B6085
:10F9B000BB683A689A4206D9FB6800221A60FB6865
:10F9C00000225A6005E07A68FB681A60FB683A68B2
:10F9D0005A60F8682437BD4680BC704780B584B053
:10F9E00000AFF860381D80E806003B60F8683B68AF
:10F9F0003A1D06CAFFF7D4FFF8681037BD4680BD30
:10FA000080B584B000AFF8603B1D83E806003B1D65
:10FA10000CCB0321F8682EF03CF800BF1037BD4630
:10FA200080BD80B584B000AF7860396007F108030D
:10FA300039681846FFF7A2FF07F1080393E80600AC
:10FA40007868FFF7DDFF00BF1037BD4680BD80B589
:10FA500084B000AFF8603B1D83E806003B1D0CCB73
:10FA60000221F8682EF015F800BF1037BD4680BDA2
:10FA700080B584B000AFF8603B1D83E806003B1DF5
:10FA80000CCB0B21F8682EF004F800BF1037BD46F0
:10FA900080BD80B582B000AF7860042178682EF018
:10FAA00040F800BF0837BD4680BD80B582B000AFCA
:10FAB00078600022042178682EF062F800BF0837D1
:10FAC000BD4680BD80B483B000AF78607B6813F121
:10FAD000070F02D16FF00F0300E0002318460C3728
:10FAE000BD4680BC7047000090B5C7B000AF07F5B9
:10FAF0008C74A4F58674206007F58C70A0F58A706C
:10FB000080E806001A4607F58C73A3F215131A70E5
:10FB100007F138033B6330237B6307F1680007F18B
:10FB2000300393E806002DF0C5FE07F16803184680
:10FB3000FFF7AFFF07F1680357491846FFF771FF5A
:10FB400007F58C73A3F58A7307F1680093E8060044
:10FB5000FFF77DFF07F58C73A3F5807300221A6011
:10FB600007F58C73A3F5807300225A6007F58C7338
:10FB7000A3F5807307F1680093E80600FFF767FFBD
:10FB800007F58C73A3F215131B78002B19D10123F1
:10FB9000C7F8103107F58C73A3F5847300221A603F
:10FBA00007F58C73A3F5847300225A6007F58C73F4
:10FBB000A3F5847307F1680093E80600FFF747FF99
:10FBC0000AE00023C7F8103107F1680307F59472C3
:10FBD00006CA1846FFF74CFF07F168031846FFF7FF
:10FBE00064FF07F1280207F16803114618462EF05A
:10FBF00040F8034687F80F3197F80F31002B03D0F8
:10FC0000152387F817313FE007F58C73A3F586734A
:10FC10001868FFF757FFC7F8080107F12003D7F866
:10FC20000811184600F0ABF9034687F8173197F82A
:10FC30001731002B27D1FA6AD7F81031D31A07F5FC
:10FC4000807007F1280206CAFFF7C8FE07F12000FE
:10FC500007F5807393E8060000F0B0F907F1200380
:10FC600007F5947206CA184600F0A8F907F12000BB
:10FC7000D7F8383107F5987206CA00F0BDF9034687
:10FC800087F8173100E000BF97F81731184607F5DD
:10FC90008E77BD4690BD00BFC84C040C80B483B0C5
:10FCA00000AF7860084B20225A60074B074A1A6061
:10FCB0007B68054A92E8030083E8030078680C3704
:10FCC000BD4680BC704700BF48AF0230D44C040C26
:10FCD00080B483B000AF00237B607B6818460C378C
:10FCE000BD4680BC7047B0B489B000AF786007F102
:10FCF0000C0300221A605A609A60DA601A617B680D
:10FD00001D4607F10C040FCC0FC523682B607868E3
:10FD10002437BD46B0BC704780B483B000AF786074
:10FD20007B685B8818460C37BD4680BC704780B442
:10FD300083B000AF7860396009E03B681B687A687F
:10FD40009A4201D1012307E03B6804333B603B68E2
:10FD50001B68002BF1D1002318460C37BD4680BC30
:10FD60007047000080B582B000AF786004497868C1
:10FD7000FFF7DDFF034618460837BD4680BD00BFCC
:10FD8000F44C040C80B483B000AF78607B6813F14E
:10FD9000070F01D1034B00E0002318460C37BD4686
:10FDA00080BC70470906000680B483B000AF78605D
:10FDB0007B68002B19D07B6813F1950F13D07B68FB
:10FDC00013F1860F0DD07B6813F18D0F07D07B6880
:10FDD00013F1970F01D1122308E0172306E0102337
:10FDE00004E0012302E00D2300E0002318460C3755
:10FDF000BD4680BC704782B090B58DB004AF7860CE
:10FE000007F1300181E80C007868FFF7BBFFB861AB
:10FE1000BB6923F4FF7323F00103B3F1062F02D073
:10FE20000123FB7723E0D7E90E2313467B61386C6F
:10FE30007C6CBB6CFA6C07F10C010291019200938F
:10FE400023460246B96978692DF0A0F8386138690F
:10FE5000FFF7AAFF0346FB77FB7F002B06D1BA6CA6
:10FE60003B6D1A60FA683B6D5A6000E000BFFB7F93
:10FE700018462437BD46BDE8904002B0704782B0B6
